
:100000000C9464000C948C000C948C000C94CA0A20
:100010000C94CA0A0C94CA0A0C948C000C94CC0957
:100020000C948C000C948C000C948C000C94610C3F
:100030000C948C000C948C000C948C000C948C0010
:100040000C94800A0C948C000C944E0A0C94280A90
:100050000C948C000C948C000C948C000C948C00F0
:100060000C94420B0C948C0000000000240027002C
:100070002A0002000000080002010000030407003B
:1000800000000000000000000000002300260029FE
:100090000000000000250028002B000404040404D4
:1000A0000404040202020202020303030303030125
:1000B00002040810204080010204081020010204FC
:1000C00008102000620D001711241FBECFEFD8E0EA
:1000D000DEBFCDBF11E0A0E0B1E0E2E4F8E302C092
:1000E00005900D92A038B107D9F724E0A0E8B1E05F
:1000F00001C01D92A733B207E1F710E0C3E6D0E0DC
:1001000004C02197FE010E94011AC236D107C9F727
:100110000E94800E0C94141C0C9400000895089505
:10012000AF92BF92CF92DF92EF92FF920F931F9305
:10013000CF93DF936C017B018B01040F151FEB0143
:100140005E01AE18BF08C017D10759F06991D601FA
:10015000ED91FC910190F081E02DC6010995892B6C
:1001600079F7C501DF91CF911F910F91FF90EF902B
:10017000DF90CF90BF90AF900895FC01538D448DD8
:10018000252F30E0842F90E0821B930B541710F042
:10019000CF96089501970895FC01918D828D98174F
:1001A00061F0A28DAE0FBF2FB11D5D968C91928D27
:1001B0009F5F9F73928F90E008958FEF9FEF089558
:1001C000FC01918D828D981731F0828DE80FF11D21
:1001D000858D90E008958FEF9FEF0895FC01918D3C
:1001E000228D892F90E0805C9F4F821B91098F7335
:1001F000992708958DE093E00E94EE0021E0892B7D
:1002000009F420E0822F089580E090E0892B29F006
:100210000E94FA0081110C9400000895FC01A48D45
:10022000A80FB92FB11DA35ABF4F2C91848D90E018
:1002300001968F739927848FA689B7892C93A089FB
:10024000B1898C91837080648C93938D848D981385
:1002500006C00288F389E02D80818F7D8083089518
:10026000EF92FF920F931F93CF93DF93EC0181E006
:10027000888F9B8D8C8D98131AC0E889F9898081AD
:1002800085FF15C09FB7F894EE89FF896083E889E0
:10029000F98980818370806480839FBF81E090E0D2
:1002A000DF91CF911F910F91FF90EF900895F62E5F
:1002B0000B8D10E00F5F1F4F0F731127E02E8C8DF9
:1002C0008E110CC00FB607FCFACFE889F98980813E
:1002D00085FFF5CFCE010E940E01F1CFEB8DEC0F23
:1002E000FD2FF11DE35AFF4FF0829FB7F8940B8F5B
:1002F000EA89FB8980818062CFCFCF93DF93EC01C5
:10030000888D8823B9F0AA89BB89E889F9898C91FD
:1003100085FD03C0808186FD0DC00FB607FCF7CFB9
:100320008C9185FFF2CF808185FFEDCFCE010E94B9
:100330000E01E9CFDF91CF910895833081F028F449
:10034000813099F08230A9F008958730A9F0883083
:10035000C9F08430B1F4809180008F7D03C080911A
:1003600080008F7780938000089584B58F7784BD57
:10037000089584B58F7DFBCF8091B0008F778093F7
:10038000B00008958091B0008F7DF9CF1F93CF9377
:10039000DF93282F30E0F901ED58FF4F8491F901E8
:1003A000E155FF4FD491F901E556FF4FC491CC239D
:1003B000A9F0162F81110E949D01EC2FF0E0EE0FA5
:1003C000FF1FEF56FF4FA591B4918FB7F894EC91B2
:1003D000111108C0D095DE23DC938FBFDF91CF9140
:1003E0001F910895DE2BF8CF9091000189130BC067
:1003F000E2E7F0E0E4919FEF90930001E13049F0F3
:1004000028F0E23061F060E00C94C60110926E00BA
:10041000FACF90916F009D7F90936F00F4CF9091F1
:1004200070009D7F9093700091E09093B000909148
:10043000B100987F94609093B1001092B300E3CF25
:10044000CF93DF9390E0FC01E155FF4F2491855657
:100450009F4FFC0184918823D1F090E0880F991F71
:10046000FC01E859FF4FA591B491FC01EF56FF4FF5
:10047000C591D49161110EC09FB7F8948C91E22F71
:10048000E0958E238C932881E223E8839FBFDF9140
:10049000CF9108958FB7F894EC91E22BEC938FBF36
:1004A000F6CF1F93CF93DF93182FEB0161E00E94EB
:1004B0002002209739F460E0812FDF91CF911F91C6
:1004C0000C94C601CF3FD10511F461E0F5CFE12FC7
:1004D000F0E0ED58FF4FE491E33031F140F4E130CA
:1004E000B1F0E230E1F0C038D1057CF7E4CFE7307D
:1004F00029F1E83059F1E430B1F780918000806251
:1005000080938000D0938B00C0938A0004C084B590
:10051000806884BDC7BDDF91CF911F91089584B5D8
:10052000806284BDC8BDF7CF8091800080688093D1
:100530008000D0938900C0938800EDCF8091B000F7
:1005400080688093B000C093B300E5CF8091B00085
:1005500080628093B000C093B400DDCF3FB7F894C1
:100560008091780290917902A0917A02B0917B02F9
:1005700026B5A89B05C02F3F19F00196A11DB11DFE
:100580003FBFBA2FA92F982F8827BC01CD01620F3A
:10059000711D811D911D42E0660F771F881F991FF5
:1005A0004A95D1F708958F929F92AF92BF92CF92C2
:1005B000DF92EF92FF924B015C010E94AE026B0151
:1005C0007C010E94AE026C197D098E099F09683E6C
:1005D000734081059105A8F321E0821A9108A108D2
:1005E000B10888EEC80E83E0D81EE11CF11C81140E
:1005F0009104A104B10429F7FF90EF90DF90CF9010
:10060000BF90AF909F908F90089520910B033091F1
:100610000C032817390771F49091090380910A039C
:10062000981741F0E0910903F0E0E95CFD4F80810B
:1006300090E008958FEF9FEF08950895EF92FF9255
:100640000F931F93CF93DF93DC015C96ED90FC90AA
:100650005D97E114F10479F481E090E013969C93A6
:100660008E93129790E080E0DF91CF911F910F91D0
:10067000FF90EF9008955196ED91FC91529750960E
:100680008C915097982F90950FB75E962C915E970E
:10069000122F127021FD6095F8942081112319F119
:1006A000282B2083E7012197F1F728E0462F50E01F
:1006B000308160FF1AC0382B3083E7012197F1F7B2
:1006C000BA0175956795215089F7112381F08081D2
:1006D000892380830FBF5C968D919C910197F1F7E0
:1006E00081E090E0C1CF2923DCCF3923E5CF908191
:1006F000892BEFCF20910B0330910C03281739077A
:1007000071F480910A032091090390E0805C9F4F6F
:10071000821B910960E470E00E94ED19089590E059
:1007200080E0089520910B0330910C0328173907BE
:10073000B9F49091090380910A03981789F0E09128
:100740000903F0E0E95CFD4F80812091090330E06E
:100750002F5F3F4F2F7333272093090390E00895B5
:100760008FEF9FEF0895E0910B03F0910C03E817D2
:10077000F90769F4A389B4899C91858980958923B7
:100780008C9310920C0310920B0381E0089580E08B
:100790000895109208041092070410920604109213
:1007A000050410920404109203048DE991E09093E3
:1007B0000A04809309049091F903963108F046C029
:1007C0002DEB30E030930404209303042BE931E057
:1007D00030930604209305042CE231E030930804A2
:1007E000209307042091680084E0983048F031E0BD
:1007F0009E3008F430E081E001C0880F3A95EAF7B6
:10080000822B809368002DE630E0983050F02BE684
:1008100030E09E3030F02CE630E0963110F030E0E1
:1008200020E03093010420930004292F30E0983019
:10083000C0F581E001C0880F9A95EAF78093020421
:100840008091090490910A040197F1F780910704BF
:1008500090910804892B21F180910B0390910C0356
:1008600023E08D3E9207E1F0009711F00E94B30360
:1008700080910B048E7F80930B0410920A031092D8
:1008800009038DEE93E090930C0380930B03E091AA
:100890000004F0910104808190910204892B8083EF
:1008A00008959E3040F42850310981E001C0880F3E
:1008B0002A95EAF7C3CF2E503109F7CF2091ED01E9
:1008C000260F3327331F21323105ECF4209111021A
:1008D000FC0190E080E0243069F082E00895A0916E
:1008E000ED012191AC0143535E4FA40FB52FB11D13
:1008F0002C930196861798F38091ED01680F609311
:10090000ED0180E0089581E008951092110281E0E8
:10091000809313021092120261E082E10E94C601EC
:1009200061E083E10E94C601E9EBF0E080818E7F07
:10093000808380818D7F808388E48093B80085E404
:100940008093BC000895CF93DF9391E09093CC0106
:100950008823B9F0C091B800D091BA008091BC0052
:100960008A7B8093BC0060E082E10E94C60160E067
:1009700083E10E94C6010E948504D093BA00C0930F
:10098000B800DF91CF910895E091830280918202B7
:10099000E81730F4F0E0E955FE4F808190E00895CB
:1009A0008FEF9FEF089590918302809182022FEF45
:1009B0003FEF981748F4E92FF0E0E955FE4F20810A
:1009C00030E09F5F90938302C90108958091820275
:1009D00090918302891B990B0895CF92DF92EF9239
:1009E000FF920F931F93CF93DF937C01CB018A017A
:1009F0002091A601222389F0EB016B01C40ED51EC4
:100A0000CC15DD0569F06991D701ED91FC9101905C
:100A1000F081E02DC7010995F3CF642F0E945E0499
:100A2000C801DF91CF911F910F91FF90EF90DF9060
:100A3000CF900895CF93DF931F92CDB7DEB7698330
:100A40002091A6012223F9F020918002203258F053
:100A500021E030E0FC013383228390E080E00F90BE
:100A6000DF91CF91089580918102E82FF0E0EA575D
:100A7000FE4F998190838F5F8093810280938002E3
:100A800081E090E0ECCF61E0CE0101960E945E042F
:100A9000F7CFCF92DF92EF92FF920F931F93CF93F6
:100AA000DF93FC01C48121E02093A601C09385015E
:100AB00010928102109280028385682B8AEA93E06B
:100AC0000E941A05D0918002D13208F092C00E9493
:100AD000AE026B017C0180911102811165C082E040
:100AE0008093110281E0809313028FEF80931002B4
:100AF00010923502D0933402A6E8B1E0E4E1F2E0CE
:100B000080E0D81385C01092360280913602CC0F57
:100B1000C82BC093360280911202813009F07CC04C
:100B2000109212020E94AE026B017C01809136028B
:100B30008093BB008091C8019091C901A091CA0126
:100B4000B091CB01892B8A2B8B2B99F00E94AE029E
:100B50000091C8011091C9012091CA013091CB01C7
:100B60006C197D098E099F09061717072807390791
:100B7000E0F18091BC0083FDD9CF85EC8093BC006F
:100B80000E94AE026B017C0180911102823009F457
:100B900045C0809110028F3F61F180911002803238
:100BA00041F18091100225C08091C8019091C90146
:100BB000A091CA01B091CB01892B8A2B8B2B09F410
:100BC0008ACF0E94AE020091C8011091C901209104
:100BD000CA013091CB016C197D098E099F09061756
:100BE00017072807390708F076CF8091C7010E94C0
:100BF000A30410928102109280021092A601DF914C
:100C0000CF911F910F91FF90EF90DF90CF900895BB
:100C10009D9191938F5F75CF85EEB0CF8091C80184
:100C20009091C901A091CA01B091CB01892B8A2B67
:100C30008B2B09F4A9CF0E94AE020091C80110913C
:100C4000C9012091CA013091CB016C197D098E092F
:100C50009F09061717072807390708F095CFC5CF52
:100C6000089590E080E00895FC01EE0FFF1FE3512E
:100C7000FD4F20813181232B39F421E030E0318395
:100C8000208361E00C94200208958F929F92AF928E
:100C9000BF92CF92DF92EF92FF920F931F93CF9369
:100CA000DF93CDB7DEB76B970FB6F894DEBF0FBEFC
:100CB000CDBF8C01F894CE0101967C0188E1D7016B
:100CC0001D928A95E9F7C8010E9434068091B0020E
:100CD000898F8091AE028A8F8091B2028B8FFE0144
:100CE0007996C7015E01BCE1AB0EB11CA701A191D1
:100CF0008A2E912C27E030E06A01C20ED31EB40187
:100D0000022E02C0759567950A94E2F76170D601CC
:100D10006C932150310980F7485F5F4FEA15FB055E
:100D200031F79801225031092630310508F0EDC025
:100D30000330110509F052C05B9825E50F920F9022
:100D40000F920F900F920F902150C1F7E8E1EE0E35
:100D5000F11C27E030E0FC01E20FF31F408141303D
:100D600009F07BC00330110509F04DC05B9A4AE1E0
:100D70000F920F900F920F900F920F904150C1F76A
:100D80000330110509F054C05B9849E10F920F90B0
:100D90000F920F900F920F904150C1F721503109DF
:100DA000D0F60896E816F906A1F60330110509F009
:100DB00097C05B9A78946B960FB6F894DEBF0FBE1F
:100DC000CDBFDF91CF911F910F91FF90EF90DF90FA
:100DD000CF90BF90AF909F908F90089504301105F1
:100DE00011F45C98AACF0530110511F45D98A5CFD8
:100DF0000630110511F45E98A0CF0730110509F0F7
:100E00009CCF5F989ACF0430110511F45C9AAFCF54
:100E10000530110511F45D9AAACF0630110511F4C1
:100E20005E9AA5CF0730110509F0A1CF5F9A9FCF39
:100E30000430110511F45C98A8CF0530110511F4A8
:100E40005D98A3CF0630110511F45E989ECF073050
:100E5000110509F09ACF5F9898CF03301105C1F4BE
:100E60005B9A4FE00F920F900F920F900F920F909E
:100E70004150C1F703301105F9F45B984EE00F9231
:100E80000F900F920F900F920F904150C1F786CFA5
:100E90000430110511F45C9AE4CF0530110511F40A
:100EA0005D9ADFCF0630110511F45E9ADACF073074
:100EB0001105B9F65F9AD5CF0430110511F45C988D
:100EC000DDCF0530110511F45D98D8CF063011053E
:100ED00011F45E98D3CF0730110581F65F98CECF1D
:100EE0000430110511F45C9A65CF0530110511F439
:100EF0005D9A60CF0630110511F45E9A5BCF073022
:100F0000110509F057CF5F9A55CF98012850310944
:100F10002630310508F04ECF0830110509F03FC0EA
:100F2000289825E50F920F900F920F900F920F9037
:100F30002150C1F728E1E20EF11C27E030E0FC016E
:100F4000E20FF31F4081413009F06BC008301105FA
:100F500009F03BC0289A4AE10F920F900F920F9030
:100F60000F920F904150C1F70830110509F043C0AE
:100F7000289849E10F920F900F920F900F920F90C7
:100F80004150C1F721503109D0F60896E816F9060C
:100F9000A1F60830110509F08BC0289A0BCF093053
:100FA000110511F42998BDCF0A30110511F42A98C2
:100FB000B8CF0B30110511F42B98B3CF0C301105BD
:100FC00011F42C98AECF2D98ACCF0930110511F447
:100FD000299AC1CF0A30110511F42A9ABCCF0B30DF
:100FE000110511F42B9AB7CF0C30110511F42C9A7E
:100FF000B2CF2D9AB0CF0930110511F42998B9CF8D
:101000000A30110511F42A98B4CF0B30110511F4F0
:101010002B98AFCF0C30110511F42C98AACF2D9836
:10102000A8CF08301105C1F4289A4FE00F920F9015
:101030000F920F900F920F904150C1F70830110599
:1010400009F528984EE00F920F900F920F900F9293
:101050000F904150C1F796CF0930110511F4299A2C
:10106000E4CF0A30110511F42A9ADFCF0B301105B5
:1010700011F42B9ADACF0C30110511F42C9AD5CF3C
:101080002D9AD3CF0930110511F42998DBCF0A30FE
:10109000110511F42A98D6CF0B30110511F42B98B5
:1010A000D1CF0C30110511F42C98CCCF2D98CACF8C
:1010B0000930110511F4299A7DCE0A30110511F479
:1010C0002A9A78CE0B30110511F42B9A73CE0C307E
:1010D000110511F42C9A6ECE2D9A6CCE682F8DE0EE
:1010E00093E00C9430010F931F93CF93DF938B0108
:1010F000D82FC92F82E00E946E08C801AD2FBC2FE7
:101100008093800190938101A0938201B093830129
:101110000E946E08812F0E946E088D2F0E946E081B
:101120008C2FDF91CF911F910F910C946E088FEF50
:101130000E946E0885E50C946E080F931F93CF9361
:101140008C01C62F0E9449056C2F6460C8010E9463
:1011500049056C2F6B7FC8010E94490583EC90E024
:101160000197F1F7CF911F910F9108950F931F935E
:10117000CF93DF938C01D62FC42F607F642B0E9406
:101180009D0880E1D89FB00111246C2BC801DF912C
:10119000CF911F910F910C949D08CF93DF93CDB702
:1011A000DEB728970FB6F894DEBF0FBECDBF98E02C
:1011B000EBE0F1E0DE01119601900D929A95E1F7D6
:1011C00090911404961710F46FEF690F262F30E0FA
:1011D000220F331F41E050E04C0F5D1F240F351FDD
:1011E000F9016081680F606840E08CE094E0289627
:1011F0000FB6F894DEBF0FBECDBFDF91CF910C9438
:10120000B60841E00E94B60881E090E00895FB0135
:1012100001900020E9F73197AF01461B570BDC0125
:10122000ED91FC910280F381E02D099461E671E07B
:101230008DE093E00C9407098FEF0E946E0885E51E
:101240000E946E080C941609FC0180819181009720
:1012500011F00C94BE1A08950F931F93CF93DF9350
:10126000EC0188819981009759F02A813B812617EA
:10127000370730F081E0DF91CF911F910F910895F2
:101280008B016F5F7F4F0E94471B009759F0998336
:1012900088831B830A832C813D81232B59F7FC0112
:1012A0001082E8CF80E0E7CFEF92FF920F931F9379
:1012B000CF93DF93EC017B018A01BA010E942C09D4
:1012C00028813981811114C02115310519F0C90116
:1012D0000E94BE1A198218821D821C821B821A82E9
:1012E000CE01DF91CF911F910F91FF90EF90089564
:1012F0001D830C83B701C9010E940D1CF1CFFC01B5
:1013000011821082138212821582148250E040E012
:1013100063E671E00C94540950E040E063E671E04C
:1013200087EE93E00C94540985ED8093BC00809186
:10133000C8019091C901A091CA01B091CB01079653
:10134000A11DB11D23E0B695A795979587952A9580
:10135000D1F72091BC0024FD03C010921102089522
:101360004091C8015091C9016091CA017091CB01AF
:10137000452B462B472B69F30097A105B10541F09A
:1013800025E32A95F1F700000197A109B109E1CF02
:101390008091C7010C94A3041F920F920FB60F9275
:1013A00011242F933F934F935F936F937F938F936A
:1013B0009F93AF93BF93EF93FF9380918B02909194
:1013C0008C02A0918D02B0918E02892B8A2B8B2BDF
:1013D000D1F190918602E0918702F091880280819C
:1013E0008927808380918B0290918C02A0918D023D
:1013F000B0918E02181619061A061B069CF48091ED
:101400008B0290918C02A0918D02B0918E02019777
:10141000A109B10980938B0290938C02A0938D0255
:10142000B0938E02FF91EF91BF91AF919F918F91F9
:101430007F916F915F914F913F912F910F900FBED0
:101440000F901F901895809100010E94F401EACF3F
:101450001F920F920FB60F9211242F933F934F9329
:101460005F936F937F938F939F93AF93BF93EF930C
:10147000FF938DE093E00E940E01FF91EF91BF91E9
:10148000AF919F918F917F916F915F914F913F911C
:101490002F910F900FBE0F901F9018951F920F92D3
:1014A0000FB60F9211242F938F939F93EF93FF9377
:1014B000E0911D03F0911E038081E0912303F091E0
:1014C000240382FD1BC09081809126038F5F8F7360
:1014D00020912703821741F0E0912603F0E0E35FBB
:1014E000FC4F958F80932603FF91EF919F918F91F1
:1014F0002F910F900FBE0F901F9018958081F4CF01
:101500001F920F920FB60F9211242F933F938F9338
:101510009F93AF93BF938091E3029091E402A091D7
:10152000E502B091E6023091770223E0230F2D37D8
:1015300058F50196A11DB11D209377028093E30217
:101540009093E402A093E502B093E60280917802C2
:1015500090917902A0917A02B0917B020196A11D2F
:10156000B11D8093780290937902A0937A02B09390
:101570007B02BF91AF919F918F913F912F910F90DF
:101580000FBE0F901F90189526E8230F0296A11DFD
:10159000B11DD2CF1F920F920FB60F9211242F932D
:1015A0003F934F935F936F937F938F939F93AF93EB
:1015B000BF93EF93FF93E0910B03F0910C033097EF
:1015C00049F0A685B7858585968D91FF14C09C91BD
:1015D0008923A1F4FF91EF91BF91AF919F918F91DA
:1015E0007F916F915F914F913F912F910F900FBE1F
:1015F0000F901F9018959C91892361F7A389B48956
:101600009C918589809589238C93868997890197F8
:10161000F1F7608D718DA685B785558538E020E09E
:10162000CB010197F1F7822F90E095958795282FB0
:101630004C91452309F02068315091F7868D81FD4A
:10164000209580910A0390E001968F73992730913D
:101650000903381799F0A0910A03B0E0A95CBD4FC7
:101660002C9380930A03828D938D0197F1F7A389C0
:10167000B4898C919589892B8C93ACCF868D8160B0
:10168000868FF1CF1F920F920FB60F9211242F93D6
:101690003F934F935F936F937F938F939F93AF93FA
:1016A000BF93EF93FF938091B900887F803609F450
:1016B0004AC0F0F5883209F4A7C018F5803109F462
:1016C0009BC0B8F4882309F4F9C0883009F494C0A9
:1016D000FF91EF91BF91AF919F918F917F916F910A
:1016E0005F914F913F912F910F900FBE0F901F90E0
:1016F0001895883109F488C0803251F78093100220
:1017000014C0803409F49DC040F48033B9F38833A9
:10171000F9F68093100285ECB0C0803509F485C0DD
:10172000883509F496C0883499F60E949409D0CF80
:10173000883909F48CC038F5883729F050F4883698
:1017400011F0803729F683E08093110210920F0286
:1017500057C0883809F47BC0803919F0803809F007
:10176000B7CF80910F02803208F071C0E0910F0274
:1017700081E08E0F80930F028091BB00F0E0E15179
:10178000FE4F80833DC0803B39F0E0F4803A09F49D
:1017900079C0883A09F09CCF84E0809311021092BE
:1017A000EE011092ED01E0917E02F0917F02099529
:1017B0008091ED0181110FC081E08093ED011092C5
:1017C000CD0109C0803C09F4A6CF883C09F4A3CF21
:1017D000883B09F07DCFE091EE0181E08E0F809390
:1017E000EE01F0E0E353FE4F80818093BB009091C7
:1017F000EE018091ED0129C0809136028093BB00FB
:1018000085EC8093BC0064CF9091350280913402C6
:10181000981758F5E091350281E08E0F80933502DC
:10182000F0E0EC5EFD4F8081E9CFE091350281E090
:101830008E0F809335028091BB00F0E0EC5EFD4F8F
:10184000808390913502809134029817C8F285E820
:10185000D8CFE091350281E08E0F809335028091E0
:10186000BB00F0E0EC5EFD4F80838091130281119C
:101870005CCF81E08093120284EA8093BC001092D6
:10188000110226CF85EC8093BC001092110280914A
:101890000F02803230F4E0910F02F0E0E151FE4F90
:1018A000108260910F0270E0E0917C02F0917D0265
:1018B0008FEE91E0099510920F020ACF109210025C
:1018C00034CF1F920F920FB60F9211242F933F9394
:1018D0004F935F936F937F938F939F93AF93BF9338
:1018E000CF93DF93EF93FF9380918401C091DA034C
:1018F000D0E087FF24C01092850010928400809170
:1019000084018F5F8093840180918401082E000CF4
:10191000990B8C179D0724F4809184018C30C4F1BD
:101920008091840090918500049680349C4908F44D
:101930007AC08091840090918500049676C0809151
:101940008401082E000C990B8C179D07C4F6E091BA
:1019500084018E2FEE0F990BFC01EE0FFF1FE80F95
:10196000F91FEA54FC4F808186FFC9CFE0918401C2
:101970008E2FEE0F990BFC01EE0FFF1FE80FF91FE2
:10198000EA54FC4F808160E08F730E94C601B7CF9C
:101990002091840030918500E09184018E2FEE0F1C
:1019A000990BFC01EE0FFF1FE80FF91FEA54FC4FE3
:1019B00081819281820F931F909389008093880088
:1019C000E09184018E2FEE0F990BFC01EE0FFF1FAB
:1019D000E80FF91FEA54FC4F808186FF11C0E091A7
:1019E00084018E2FEE0F990BFC01EE0FFF1FE80F05
:1019F000F91FEA54FC4F808161E08F730E94C60199
:101A0000FF91EF91DF91CF91BF91AF919F918F9116
:101A10007F916F915F914F913F912F910F900FBEEA
:101A20000F901F90189580E49CE990938900809313
:101A300088008FEF80938401E3CFCF92DF92EF9203
:101A4000FF920F931F93E82FF92F05C00150110942
:101A50002109310961F1908196239417B9F305C0EA
:101A6000015011092109310911F190819623941334
:101A7000F7CFC12CD12CE12CF12C0AC08FEFC81A62
:101A8000D80AE80AF80A0C151D052E053F0579F05D
:101A900080818623841791F36C2D7D2D8E2D9F2DB3
:101AA0001F910F91FF90EF90DF90CF90089560E02D
:101AB00070E080E090E01F910F91FF90EF90DF9039
:101AC000CF9008951092100310920F0388EE93E0C8
:101AD000A0E0B0E08093110390931203A09313034E
:101AE000B093140323E231E030930E0320930D03EF
:101AF00025EC30E030931A032093190324EC30E0F6
:101B000030931C0320931B0320EC30E030931E0322
:101B100020931D0321EC30E03093200320931F031A
:101B200022EC30E0309322032093210326EC30E0B6
:101B3000309324032093230310922603109227034B
:101B400010922803109229031092AD031092AC0357
:101B50008093AE039093AF03A093B003B093B1030F
:101B600085E391E09093AB038093AA03EBE1F4E06B
:101B70002FEF48EB5BE08091DA038C3008F0BAC0BD
:101B800091E0980F9093DA03808390E0DC01AA0F34
:101B9000BB1FA80FB91FAA54BC4F12965C934E935B
:101BA0001197339684E0E333F80729F78091DA033D
:101BB0008C3008F0A1C091E0980F9093DA038093E5
:101BC000180490E0FC01EE0FFF1FE80FF91FEA5424
:101BD000FC4F88EB9BE09283818310920F0410925C
:101BE0000E0489E591E090930D0480930C0487E244
:101BF0008093100480E18093150482E080931604A2
:101C0000109217041092F0031092EF0388EE93E005
:101C1000A0E0B0E08093F1039093F203A093F3036C
:101C2000B093F40387E491E09093EE038093ED0387
:101C300010920404109203041092060410920504FA
:101C4000109208041092070410920A0410920904DA
:101C500060910B046E7F6D7F60930B0466956170DD
:101C600081E0682783E00E94C60161E083E00E9472
:101C70002002E2EBF0E0E491E093FD03EEE9F0E016
:101C8000E491F0E0EE0FFF1FEF56FF4F8591949126
:101C90009093FF038093FE0360E082E00E942002A5
:101CA00080910B0481FD04C061E082E00E94C601C6
:101CB00082E08093F903E1EBF0E0E491E093FA0332
:101CC000EDE9F0E0E491F0E0EE0FFF1FE957FF4F80
:101CD000859194919093FC038093FB0387EE93E0AE
:101CE0000E947F0981EE93E00E947F098BED93E0D3
:101CF0000C947F09208355CF8FEF809318046DCF0C
:101D0000CF93DF93CDB7DEB7AA970FB6F894DEBFB7
:101D10000FBECDBF789484B5826084BD84B58160E8
:101D200084BD85B5826085BD85B5816085BD8091A6
:101D30006E00816080936E0010928100809181001E
:101D40008260809381008091810081608093810016
:101D5000809180008160809380008091B1008460D8
:101D60008093B1008091B00081608093B000809139
:101D70007A00846080937A0080917A0082608093F8
:101D80007A0080917A00816080937A0080917A0055
:101D9000806880937A001092C100E0911D03F09159
:101DA0001E0382E08083E0911903F0911A031082F0
:101DB000E0911B03F0911C0380E1808310922503C6
:101DC000E0912103F091220386E08083E0911F03DC
:101DD000F0912003808180618083E0911F03F09166
:101DE0002003808188608083E0911F03F0912003AD
:101DF000808180688083E0911F03F09120038081BF
:101E00008F7D80830E94C90314E061E0812F0E94CE
:101E1000200260E0812F0E94C6011F5F1E30A9F7DB
:101E2000109283021092820210928102109280021C
:101E30000E9485048EE890E090937F0280937E025A
:101E40008FE890E090937D0280937C0210921104C1
:101E500080911604823018F098E0909311048093DA
:101E6000140462E370E080E090E00E94D30260918D
:101E700017048CE094E00E94490568EE73E080E06E
:101E800090E00E94D30260E38CE094E00E949D0801
:101E90000BE416E4C8010197F1F760E38CE094E0ED
:101EA0000E949D08C8010197F1F760E38CE094E07F
:101EB0000E949D0883E592E00197F1F760E28CE0D3
:101EC00094E00E949D0860911104606240E08CE003
:101ED00094E00E94B60884E08093120440E06CE035
:101EE0008CE094E00E94B60840E061E08CE094E071
:101EF0000E94B6080BE31FE1C8010197F1F782E0E9
:101F00008093130440E066E08CE094E00E94B60801
:101F100040E062E08CE094E00E94B608C8010197BE
:101F2000F1F788E08093170460E08CE094E00E9471
:101F3000490540E061E08CE094E00E94B608C801E9
:101F40000197F1F760E080E00E94CD0864E671E05F
:101F50008CE094E00E94070961E086E00E94CD08D1
:101F600065E771E08CE094E00E94070968EC70E09E
:101F700080E090E00E94D302CE0142969CA38BA306
:101F80008DE093E00E94EE00892B09F42CC58DE0D2
:101F900093E00E94EE001816190694F78DE093E086
:101FA0000E94CC009091DE02853589F591112FC0F9
:101FB0008091DD028F3F29F481E08093DC028093E1
:101FC000DE028091DC028F5F8433C0F58093DC02F7
:101FD0008091DE028823A1F28091DB028111D0CFB3
:101FE0008091DC02843060F21092DE02E091AC025B
:101FF0000091AD02E02EF12C2091AB02223009F4C9
:10200000C8C00CF5213039F11092DC02B9CF8093B1
:10201000DD029923B1F2E091DC02E23039F48093E1
:10202000DB02F0E0E955FD4F8083CBCFE330C8F30E
:102030009091DB0291509093DB02F3CF1092DC027F
:102040001092DE02C5CF233009F464C42430E1F6D7
:102050000E941C09D9CFE73009F040C01091AE02B0
:10206000812F90E03091EC02311129C02093EC02D5
:10207000F0920401E0920301909302018093010128
:10208000F701EE0FFF1FE351FD4F21E030E03183F8
:102090002083880F991FFC01E351FD4F318320837A
:1020A00061E0802F0E94200260E0812F0E942002C8
:1020B00062E370E080E090E00E94D302A5CF20911F
:1020C000030130910401E216F30691F6209101011B
:1020D000309102012817390759F696CFF0E0E93020
:1020E000F10571F40E94C90360E082E00E942002C1
:1020F0008091EB02811188CF81E08093EB0284CF45
:102100003A9729F40E94C90361E083E0EFCF809100
:10211000030190910401E816F90639F0809101015C
:1021200090910201E816F90691F41092EC021092D7
:10213000DF021092E0021092E1021092E202F70137
:10214000EE0FFF1FE351FD4F118210825DCF92E031
:10215000E916F10469F48DEE93E00E94B303109246
:10216000EB020E948C091092F2021092F1024CCF05
:10217000E3E0EE16F10419F78DEE93E00E94B3034D
:102180001092EB020E948C091092F4021092F3025A
:102190003BCF8091030190910401E816F90639F0D4
:1021A0008091010190910201E816F90651F4109214
:1021B000EC021092DF021092E0021092E102109203
:1021C000E202E150ED3008F043CF0E2E000CFF0B81
:1021D000E451FF4E0C94011AF91028100211351326
:1021E0000C11281028104A142810281028105614F2
:1021F0007214C7010E9434066091AE02802F0E94C3
:10220000C60126CFC7010E9434066091AE0270E07D
:10221000802F0E9451021CCFC7010E94340680917A
:10222000AE02809384028091AF02809385028091F8
:102230008402909185029EA38DA38091B002809329
:1022400084028091B10280938502E0918402F09132
:102250008502F8A7EFA31E161F060CF002C280919C
:1022600000010813CEC0E2E7F0E0149117FDF0CEB4
:1022700061E0802F0E9420021123B9F08DA19EA160
:102280002C01712C612C60E072E18AE790E0A301DF
:1022900092010E943A1869017A0191E0C91AD108A5
:1022A000E108F108123009F099C1EDA1FEA12F015A
:1022B000712C612C60E072E18AE790E0A3019F013C
:1022C0000E943A1849015A017A016901F1E0CF1AD6
:1022D000D108E108F1082FEFC216D104E104F1049E
:1022E00009F00CF44EC160E472E48FE090E0A301C9
:1022F00092010E943A1869017A0181E0C81AD10856
:10230000E108F108123009F0F3C082E09FEFC9162E
:10231000D104E104F10409F00CF46CC060E970ED43
:1023200083E090E0A30192010E943A1869017A01CA
:10233000E1E0CE1AD108E108F10883E0FFEFCF1603
:10234000D104E104F10409F00CF454C068E478EE1F
:1023500081E090E0A30192010E943A1869017A019C
:1023600091E0C91AD108E108F10884E0EFEFCE1638
:10237000D104E104F104F1F1ECF164E274EF80E0E6
:1023800090E0A30192010E943A1869017A0191E05C
:10239000C91AD108E108F10885E0EFEFCE16D104A3
:1023A000E104F10439F130F162E17AE780E090E094
:1023B000A30192010E943A1869017A0181E0C81ACA
:1023C000D108E108F10886E09FEFC916D104E104C5
:1023D000F10481F078F0750164012AE0F594E79446
:1023E000D794C7942A95D1F721E0C21AD108E10801
:1023F000F10887E09091B100987F892B8093B1001C
:10240000C7C08F3F09F024CE00930001E2E7F0E05F
:1024100014911F3F09F41CCE113031F150F01230ED
:1024200009F442C017FD14CE61E0802F0E94200203
:1024300025CF14BC15BC84B5826084BD85B5816090
:1024400085BDF701E556FF4FE491F0E0EE0FFF1F69
:10245000EF56FF4F85919491F701E155FF4FE491BD
:10246000E0938A0210E004CF109280001092810065
:1024700080918100886080938100809181008160DB
:1024800080938100F701E556FF4FE491F0E0EE0FF5
:10249000FF1FEF56FF4F85919491F701E155FF4FD4
:1024A000E491E0938902E4CE1092B0001092B10062
:1024B0008091B00082608093B0008091B100816013
:1024C0008093B100F701E556FF4FE491F0E0EE0F85
:1024D000FF1FEF56FF4F8591949190938802809350
:1024E0008702F701E155FF4FE491E0938602C0CEE9
:1024F0002FEFC216D104E104F10409F00CF46CC012
:1025000068E478EE81E090E0A30192010E943A181D
:1025100069017A0181E0C81AD108E108F10884E074
:1025200011113BCF83E0FFEFCF16D104E104F1049A
:1025300059F154F162E17AE780E090E0A301920161
:102540000E943A1869017A01E1E0CE1AD108E10847
:10255000F10884E0FFEFCF16D104E104F104A1F00B
:1025600098F0750164019AE0F594E794D794C794C4
:102570009A95D1F781E0C81AD108E108F10885E001
:1025800003C081E0111136CF95B5987F892B85BDA9
:102590002DA13EA1220F331FAFA1B8A50E94071A9B
:1025A00028EE33E040E050E00E949B181130B9F172
:1025B000123009F446C011114BCDC7BC20939302D1
:1025C00030939402409395025093960280916E004E
:1025D000826080936E003CCD82E0D4CF91E0C11444
:1025E000D10421E0E206F10484F068E478EE81E0B1
:1025F00090E0A30192010E943A1869017A0181E0FA
:10260000C81AD108E108F10893E0113009F0C0CFF1
:1026100080918100887F892B80938100B9CFD092EF
:102620008900C092880020938F02309390024093DB
:1026300091025093920280916F00826080936F00AC
:1026400007CDC092B30020938B0230938C0240934D
:102650008D0250938E028091700082608093700092
:10266000F7CC802F0E94F401F3CCC7010E943406FE
:102670009090AE0294EB991508F4EACC809080001B
:10268000E0918100EDA3A0908800B0908900F091C6
:102690006F00FFA365E070E080E090E00E94D3024D
:1026A000E7E9F2E090E080E021913191E216F30653
:1026B00051F0232B09F0E6C0FC01EE0FFF1FE95695
:1026C000FD4FF182E082FC01EE0FFF1FE80FF91FC2
:1026D000E55EFB4F808121819281809318042093D5
:1026E000190490931A048C3008F053C061E0802FD5
:1026F0000E94200280911804282F30E0F901EE0F8B
:10270000FF1FE20FF31FEA54FC4F902F9F730081CD
:10271000007C092B00831092190410921A042CE0FB
:10272000622F0E94E119829FB001112430E020E065
:10273000AB01420F531FFA01EE0FFF1FE40FF51F0D
:10274000EA54FC4F908196FD16C02F5F3F4F2C300E
:10275000310571F781110FC01092800082E08093E3
:1027600081001092850010928400B19A80916F00D0
:10277000826080936F00E09118048E2F90E0FC013E
:10278000EE0FFF1FE80FF91FEA54FC4F80818064B1
:102790008083F090180480911A0448E5C42E42E02A
:1027A000D42EC81AD10887FDD394CC0CDD1CCC0CD8
:1027B000DD1C8091190408E810E0081B110987FD51
:1027C0001395000F111F000F111F2801012E000C7F
:1027D0006608770896010D2C000C440B550B241944
:1027E000350946095709A92DB0E00E94591824EB74
:1027F00030E040E050E00E943A18BA01A901440DCF
:10280000551D661D771D2BE02F15D0F04017510781
:102810002CF086014C155D050CF48A01025011095B
:10282000000F111F2FB7F8948F2D90E0FC01EE0FD1
:10283000FF1FE80FF91FEA54FC4F128301832FBFDB
:1028400064E670E080E090E00E94D302E09118041A
:102850008E2F90E0FC01EE0FFF1FE80FF91FEA54E6
:10286000FC4F80818F7B8083809280008DA180933C
:1028700081009FA190936F00BB24B0928900A09229
:102880008800E6CB01968830910509F00DCF90E0E5
:1028900080E019CF8FB7F8944091E3025091E402A1
:1028A0006091E5027091E6028FBFD2CBC7010E9412
:1028B00045066AE070E080E090E00E94D302C70124
:1028C0000E9445066AE070E080E090E00E94D3023A
:1028D000C7010E9445066AE070E080E090E00E9437
:1028E000D302B6CBE090AE02F090B002D090B2022C
:1028F0000091B40210E08E2D90E00E9434068F2DDE
:1029000090E00E9434066D2D8E2D0E94C601B80104
:102910008F2D7FCCEA3009F452C0EB3009F04CC067
:102920000091AE021091B0021A8219821C821B82A1
:102930001E821D8250E040E063E671E0CE01019608
:102940000E945409602F812F0E94CD0807EA12E0EF
:10295000E9ECCE2EE2E0DE2EF80183851816DCF4D9
:10296000ED80FE8089A31AA2FFEFEF1AFF0AB701DC
:10297000CE0101960E942C09882369F029813A81B1
:102980008D819E81BE016F5D7F4F820F931F0E94DC
:102990000D1CFE82ED820E5F1F4FC016D106E1F6C0
:1029A0004D815E8169817A818CE094E00E94900083
:1029B000CE0101960E9424090E941C0949CBA7EA76
:1029C000B2E0FE013196BF0117968C911797819363
:1029D00012968BA19CA18E179F07B1F78DEE93E005
:1029E0000E940709E9CF8DEE93E00E947A037C01F3
:1029F000892B71F18DEE93E00E947A031816190667
:102A000094F78DEE93E00E94920389831A820091DD
:102A1000EB031091EC030F5F1F4FB80187EE93E0BB
:102A20000E942C098823F9F22091E7033091E803F2
:102A30008091EB039091EC03BE016F5F7F4F820F9B
:102A4000931F0E940D1C1093EC030093EB03CBCF5C
:102A50006FE070E080E090E00E94D30275EFA72E57
:102A600072E0B72E04E010E0F501C190D1905F0153
:102A7000C114D10409F03AC0702E60E0802F0E948A
:102A800020020E949708F801ED58FF4F8491F80149
:102A9000E155FF4F8490F801E556FF4F949099203F
:102AA00099F081110E949D01E92DF0E0EE0FFF1FCA
:102AB000E957FF4FA591B491EC918E2291E080E00F
:102AC00009F490E0C92ED82EB601DD0C880B990BC5
:102AD0000E941D170E947308872D0E946E0881E0D6
:102AE0000E946E080E9416090E941C090F5F1F4F6A
:102AF0000E30110509F0B8CF53E1A52E51E0B52EE7
:102B000010E0F501819191915F01892B09F060C07E
:102B100044E1C42ED12C55245394012F006400931A
:102B20007C0080917A00806480937A0080917A00A2
:102B300086FDFCCF8091780060917900762F682F18
:102B4000072E000C880B990B0E941D173B014C01AE
:102B5000552019F069A77AA61C012DEC3CEC4CEC31
:102B60005DE369A57AA5C1010E947C171B012C01B8
:102B700026E636E646E65FE3B301C4010E947C1711
:102B80009B01AC01C201B1010E94CD1869A77AA7CF
:102B90001C01F1E0CF1AD108512C09F0C0CF0E94DE
:102BA000970869A57AA5C1010E94AB19072E000CF0
:102BB000880B990B0E941D170E947308812F0E9499
:102BC0006E0882E00E946E080E9416090E941C098D
:102BD0001F5F163009F095CF8091EC02882309F42D
:102BE0006FC01091030160E0812F0E94C60183E055
:102BF00090E00197F1F761E0812F0E94C60183E226
:102C000090E00197F1F760E0812F0E94C60180916A
:102C10000101909102019927FC01E155FF4F649158
:102C2000FC01E556FF4FE491F0E0EE0FFF1FE9577E
:102C3000FF4F8591949100E315E720E030E0462FA7
:102C40000E941D0D611571058105910529F06F5FC9
:102C50007F4F8F4F9F4F9F700E941B1720E030E0E7
:102C600048EE51E40E94391920E030E040E05FE393
:102C70000E947C174B015C0120E030E0A9010E941A
:102C80001617811175C08090DF029090E002A0902D
:102C9000E102B090E2020E949708C501B4010E94CF
:102CA0007308809103010E946E08809101010E94C7
:102CB0006E0887E00E946E080E9416090E941C0997
:102CC0008091EB02882309F47FC02FB7F89480919C
:102CD000E3029091E402A091E502B091E6022FBFD9
:102CE0004091E7025091E8026091E9027091EA0296
:102CF000841B950BA60BB70B8C329140A105B10537
:102D000008F062C00E9497081A8219821C821B82F6
:102D10001E821D826091E7037091E80361157105C1
:102D200041F04091EB035091EC03CE0101960E94DB
:102D30005409DD800D2D1E8184E00E946E088D2DCA
:102D40000E946E08E016F106F4F48D819E81E8166B
:102D5000F906B8F489819A81009799F08E0D9F1D2C
:102D6000FC0180810E946E08FFEFEF1AFF0AEACF94
:102D70008092DF029092E002A092E102B092E20221
:102D80008ACF80E0EFCFCE0101960E94240982E035
:102D90000E946E0889E00E946E080E9416090E9437
:102DA0001C096AE070E080E090E00E94D30280E0BD
:102DB00090E0892B09F4E0C80E94FA00882309F406
:102DC000DBC80E940000D8C850E040E063E671E034
:102DD00087EE93E00E9454092FB7F8948091E302A4
:102DE0009091E402A091E502B091E6022FBF80939A
:102DF000E7029093E802A093E902B093EA02D1CFF0
:102E00008BED93E00E94240981EE93E00E94240957
:102E100087EE93E00E94240987E491E09093EE030B
:102E20008093ED038DEE93E00C94B3030E9458174A
:102E300008F481E00895E89409C097FB3EF490956A
:102E40008095709561957F4F8F4F9F4F9923A9F083
:102E5000F92F96E9BB279395F69587957795679512
:102E6000B795F111F8CFFAF4BB0F11F460FF1BC056
:102E70006F5F7F4F8F4F9F4F16C0882311F096E9E9
:102E800011C0772321F09EE8872F762F05C0662397
:102E900071F096E8862F70E060E02AF09A95660F50
:102EA000771F881FDAF7880F9695879597F9089509
:102EB000990F0008550FAA0BE0E8FEEF161617064B
:102EC000E807F907C0F012161306E407F50798F0B3
:102ED000621B730B840B950B39F40A2661F0232BCC
:102EE000242B252B21F408950A2609F4A140A69548
:102EF0008FEF811D811D08950E948F170C9400187B
:102F00000E94F21738F00E94F91720F0952311F073
:102F10000C94E9170C94EF1711240C9434180E94A8
:102F2000111870F3959FC1F3950F50E0551F629FE4
:102F3000F001729FBB27F00DB11D639FAA27F00D12
:102F4000B11DAA1F649F6627B00DA11D661F829F39
:102F50002227B00DA11D621F739FB00DA11D621F1E
:102F6000839FA00D611D221F749F3327A00D611D3B
:102F7000231F849F600D211D822F762F6A2F11241D
:102F80009F5750409AF0F1F088234AF0EE0FFF1F50
:102F9000BB1F661F771F881F91505040A9F79E3FA7
:102FA000510580F00C94E9170C9434185F3FE4F35A
:102FB000983ED4F3869577956795B795F795E795FD
:102FC0009F5FC1F7FE2B880F911D9695879597F906
:102FD000089597F99F6780E870E060E008959FEF9B
:102FE00080EC089500240A941616170618060906A0
:102FF000089500240A94121613061406050608956F
:10300000092E0394000C11F4882352F0BB0F40F4F6
:10301000BF2B11F460FF04C06F5F7F4F8F4F9F4F36
:10302000089557FD9058440F551F59F05F3F71F0B8
:103030004795880F97FB991F61F09F3F79F087951F
:103040000895121613061406551FF2CF4695F1DFA8
:1030500008C0161617061806991FF1CF8695710538
:10306000610508940895E894BB2766277727CB016C
:1030700097F90895052E97FB1EF400940E945118AD
:1030800057FD07D00E949B1807FC03D04EF40C9408
:10309000511850954095309521953F4F4F4F5F4FB8
:1030A000089590958095709561957F4F8F4F9F4FB4
:1030B00008950E94BD18A59F900DB49F900DA49FE8
:1030C000800D911D112408952F923F924F925F928F
:1030D0006F927F928F929F92AF92BF92CF92DF9228
:1030E000EF92FF920F931F93CF93DF93CDB7DEB78D
:1030F000CA1BDB0B0FB6F894DEBF0FBECDBF099421
:103100002A88398848885F846E847D848C849B8477
:10311000AA84B984C884DF80EE80FD800C811B8185
:10312000AA81B981CE0FD11D0FB6F894DEBF0FBEB4
:10313000CDBFED010895A1E21A2EAA1BBB1BFD0114
:103140000DC0AA1FBB1FEE1FFF1FA217B307E40786
:10315000F50720F0A21BB30BE40BF50B661F771FDE
:10316000881F991F1A9469F76095709580959095BE
:103170009B01AC01BD01CF010895A29FB001B39F97
:10318000C001A39F700D811D1124911DB29F700D70
:10319000811D1124911D08955058BB27AA270E9414
:1031A000E4180C9400180E94F21738F00E94F917E6
:1031B00020F039F49F3F19F426F40C94EF170EF425
:1031C000E095E7FB0C94E917E92F0E94111858F3DA
:1031D000BA17620773078407950720F079F4A6F5FC
:1031E0000C9433180EF4E0950B2EBA2FA02D0B0182
:1031F000B90190010C01CA01A0011124FF27591B3C
:1032000099F0593F50F4503E68F11A16F040A22F41
:10321000232F342F4427585FF3CF469537952795B2
:10322000A795F0405395C9F77EF41F16BA0B620BB1
:10323000730B840BBAF09150A1F0FF0FBB1F661FF8
:10324000771F881FC2F70EC0BA0F621F731F841F3B
:1032500048F4879577956795B795F7959E3F08F061
:10326000B0CF9395880F08F09927EE0F9795879523
:1032700008950E944D190C9400180E94F91758F0F7
:103280000E94F21740F029F45F3F29F00C94E917EF
:1032900051110C9434180C94EF170E94111868F314
:1032A0009923B1F3552391F3951B550BBB27AA27FF
:1032B00062177307840738F09F5F5F4F220F331F39
:1032C000441FAA1FA9F335D00E2E3AF0E0E832D001
:1032D00091505040E695001CCAF72BD0FE2F29D004
:1032E000660F771F881FBB1F261737074807AB07D6
:1032F000B0E809F0BB0B802DBF01FF2793585F4F4B
:103300003AF09E3F510578F00C94E9170C9434186C
:103310005F3FE4F3983ED4F3869577956795B7952C
:10332000F7959F5FC9F7880F911D9695879597F937
:103330000895E1E0660F771F881FBB1F62177307B0
:103340008407BA0720F0621B730B840BBA0BEE1FC5
:1033500088F7E09508950E94B2196894B1110C9411
:10336000341808950E94191888F09F5798F0B92FC3
:103370009927B751B0F0E1F0660F771F881F991FAA
:103380001AF0BA95C9F714C0B13091F00E94331801
:10339000B1E008950C943318672F782F8827B85F11
:1033A00039F0B93FCCF3869577956795B395D9F702
:1033B0003EF490958095709561957F4F8F4F9F4F0C
:1033C0000895991B79E004C0991F961708F0961B81
:1033D000881F7A95C9F78095089597FB072E16F4F4
:1033E000009407D077FD09D00E940E1A07FC05D083
:1033F0003EF4909581959F4F0895709561957F4F0C
:103400000895EE0FFF1F0590F491E02D09940E949E
:10341000BD18B7FF0895821B930B0895AA1BBB1B11
:1034200051E107C0AA1FBB1FA617B70710F0A61BC4
:10343000B70B881F991F5A95A9F780959095BC01E5
:10344000CD0108950F931F93CF93DF9382309105A1
:1034500010F482E090E0E0913504F091360430E021
:1034600020E0B0E0A0E0309799F42115310509F48F
:103470004AC0281B390B24303105D8F58A819B813D
:103480006115710589F1FB0193838283FE0111C0EF
:10349000408151810281138148175907E0F0481794
:1034A000590799F4109761F012960C93129713969E
:1034B0001C933296CF01DF91CF911F910F91089508
:1034C0000093350410933604F4CF2115310551F0E3
:1034D0004217530738F0A901DB019A01BD01DF0152
:1034E000F801C1CFEF01F9CF9093360480933504F2
:1034F000CDCFFE01E20FF31F81939193225031094A
:1035000039832883D7CF2091330430913404232B7F
:1035100041F4209107013091080130933404209345
:10352000330420910501309106012115310541F444
:103530002DB73EB74091090150910A01241B350B6C
:10354000E0913304F0913404E217F307A0F42E1B4A
:103550003F0B2817390778F0AC014E5F5F4F2417F7
:10356000350748F04E0F5F1F5093340440933304E7
:10357000819391939FCFF0E0E0E09CCFCF93DF93D6
:103580000097E9F0FC01329713821282A091350472
:10359000B0913604ED0130E020E01097A1F42081D5
:1035A0003181820F931F2091330430913404281706
:1035B000390709F061C0F0933404E0933304DF91DC
:1035C000CF910895EA01CE17DF07E8F54A815B81C4
:1035D0009E0141155105B1F7E901FB83EA83499149
:1035E0005991C40FD51FEC17FD0761F480819181BB
:1035F0000296840F951FE9019983888382819381C4
:103600009B838A83F0E0E0E012968D919C91139762
:103610000097B9F52D913C911197CD010296820F3B
:10362000931F20913304309134042817390739F659
:10363000309751F51092360410923504B09334044B
:10364000A0933304BCCFD383C28340815181840FC4
:10365000951FC817D90761F44E5F5F4F8881998124
:10366000480F591F518340838A819B8193838283B2
:103670002115310509F0B0CFF0933604E0933504FD
:103680009ECFFD01DC01C0CF13821282D7CFB0E004
:10369000A0E0EDE4FBE10C9466188C01009751F476
:1036A000CB010E94221A8C01C801CDB7DEB7E0E140
:1036B0000C948218FC01E60FF71F9C01225031097F
:1036C000E217F30708F49DC0D901CD91DC91119761
:1036D000C617D70798F0C530D10530F3CE0104974F
:1036E0008617970708F3C61BD70B2297C193D19370
:1036F0006D937C93CF010E94BE1AD6CF5B01AC1AAA
:10370000BD0A4C018C0E9D1EA0913504B09136046B
:10371000512C412CF12CE12C109731F58091330480
:10372000909134048815990509F05CC04616570637
:1037300008F058C08091050190910601009741F46E
:103740008DB79EB74091090150910A01841B950BDA
:10375000E817F90708F055C0F0933404E0933304F8
:10376000F90171836083A0CF8D919C91119712967E
:103770006C90129713967C901397A815B90559F57C
:103780006C0142E0C40ED11CCA14DB0420F1AC0170
:103790004A195B09DA011296159780F062827382EA
:1037A00051834083D9016D937C93E114F10471F04E
:1037B000D7011396FC93EE93129776CF22968C0F37
:1037C0009D1FF90191838083F301EFCFF0933604BD
:1037D000E093350469CF4816590608F42C017D01A1
:1037E000D3019ACFCB010E94221A7C01009749F0A5
:1037F000AE01B8010E94041CC8010E94BE1A8701D4
:1038000053CF10E000E050CFFB01DC0102C001907B
:103810000D9241505040D8F70895FB01DC01019012
:103820000D920020E1F7089510E0C3E6D0E004C057
:10383000FE010E94011A2196C436D107C9F7F894F7
:02384000FFCFB8
:10384200FF0C000D0000003704800000004000144F
:103852000054000000000000000000000000000012
:1038620000000030019000BD007D01EE00CC00E0C0
:1038720000000000001A05ED0431061D03E604D322
:1038820004C404000000001E03900031061D037AE8
:103892000392030503000000000109900031063085
:1038A200060D0A00426C61636B736D697468204295
:1038B2006F617264007769746820456E7472790072
:00000001FF
