:100000000C9464000C948C000C948C000C94380FAD
:100010000C94380F0C94380F0C948C000C943A0EFE
:100020000C948C000C948C000C948C000C94CF10CD
:100030000C948C000C948C000C948C000C948C0010
:100040000C94EE0E0C948C000C94BC0E0C94960E3A
:100050000C948C000C948C000C948C000C948C00F0
:100060000C94B00F0C948C000000000024002700BA
:100070002A0000000008000201000003040700003D
:1000800000000000000002000000002300260029FC
:100090000000000000250028002B000404040404D4
:1000A0000404040202020202020303030303030125
:1000B00002040810204080010204081020010204FC
:1000C00008102000D011A21C11241FBECFEFD8E0D1
:1000D000DEBFCDBF11E0A0E0B1E0E4EAF3E402C08E
:1000E00005900D92A437B107D9F724E0A4E7B1E059
:1000F00001C01D92A734B207E1F710E0C3E6D0E0DB
:1001000004C02197FE010E94BF1FC236D107C9F764
:100110000E9411130C94C5210C94000008950895B9
:10012000E0911404F09115048E179F0798F5309113
:100130001A04332361F0639FB0011124672F349FA9
:10014000A0011124452F329F90011124232F3091BB
:100150002004E0911B04F0911C0450911D04351300
:100160001AC0DC01AA0FBB1F8A0F9B1F8E0F9F1F97
:10017000E0911D04E80FF92FF11D6083E0911E044A
:10018000E80FF92FF11D408330911F04830F911D5B
:10019000FC0120830895880F991F880F991F8E0FE7
:1001A0009F1FFC01E30FF11D1082E2CFAF92BF92BF
:1001B000CF92DF92EF92FF920F931F93CF93DF9333
:1001C0006C017B018B01040F151FEB015E01AE1862
:1001D000BF08C017D10759F06991D601ED91FC9184
:1001E0000190F081E02DC6010995892B79F7C501B1
:1001F000DF91CF911F910F91FF90EF90DF90CF9003
:10020000BF90AF900895FC01538D448D252F30E0B1
:10021000842F90E0821B930B541710F0CF96089513
:1002200001970895FC01918D828D981761F0A28D40
:10023000AE0FBF2FB11D5D968C91928D9F5F9F7306
:10024000928F90E008958FEF9FEF0895FC01918DBC
:10025000828D981731F0828DE80FF11D858D90E029
:1002600008958FEF9FEF0895FC01918D228D892FC6
:1002700090E0805C9F4F821B91098F7399270895AE
:1002800085E093E00E94340121E0892B09F420E00D
:10029000822F089580E090E0892B29F00E94400190
:1002A00081110C9400000895FC01A48DA80FB92FB2
:1002B000B11DA35ABF4F2C91848D90E001968F738E
:1002C0009927848FA689B7892C93A089B1898C91AD
:1002D000837080648C93938D848D981306C00288FC
:1002E000F389E02D80818F7D80830895EF92FF92C6
:1002F0000F931F93CF93DF93EC0181E0888F9B8D49
:100300008C8D98131AC0E889F989808185FF15C002
:100310009FB7F894EE89FF896083E889F989808125
:100320008370806480839FBF81E090E0DF91CF91F4
:100330001F910F91FF90EF900895F62E0B8D10E016
:100340000F5F1F4F0F731127E02E8C8D8E110CC085
:100350000FB607FCFACFE889F989808185FFF5CFD0
:10036000CE010E945401F1CFEB8DEC0FFD2FF11D5A
:10037000E35AFF4FF0829FB7F8940B8FEA89FB890D
:1003800080818062CFCFCF93DF93EC01888D88236B
:10039000B9F0AA89BB89E889F9898C9185FD03C0E8
:1003A000808186FD0DC00FB607FCF7CF8C9185FFCD
:1003B000F2CF808185FFEDCFCE010E945401E9CFBD
:1003C000DF91CF910895833081F028F4813099F046
:1003D0008230A9F008958730A9F08830C9F08430C0
:1003E000B1F4809180008F7D03C0809180008F7771
:1003F00080938000089584B58F7784BD089584B577
:100400008F7DFBCF8091B0008F778093B0000895EF
:100410008091B0008F7DF9CFCF93DF93282F30E00C
:10042000F901EE58FF4F8491F901E155FF4FD49146
:10043000F901E556FF4FC491CC23A1F081110E9430
:10044000E301EC2FF0E0EE0FFF1FE957FF4FA591FE
:10045000B491EC91ED2381E090E009F480E0DF912C
:10046000CF91089580E090E0FACF1F93CF93DF9370
:10047000282F30E0F901EE58FF4F8491F901E15542
:10048000FF4FD491F901E556FF4FC491CC23A9F059
:10049000162F81110E94E301EC2FF0E0EE0FFF1FF9
:1004A000EF56FF4FA591B4918FB7F894EC911111CD
:1004B00008C0D095DE23DC938FBFDF91CF911F91D1
:1004C0000895DE2BF8CF9091000189130BC0E6E868
:1004D000F0E0E4919FEF90930001E13049F028F0C3
:1004E000E23061F060E00C94350210926E00FACFB9
:1004F00090916F009D7F90936F00F4CF909170006A
:100500009D7F9093700091E09093B0009091B10026
:10051000987F94609093B1001092B300E3CFCF9393
:10052000DF9390E0FC01E155FF4F249185569F4FEA
:10053000FC0184918823D1F090E0880F991FFC0181
:10054000E859FF4FA591B491FC01EF56FF4FC591BB
:10055000D49161110EC09FB7F8948C91E22FE09571
:100560008E238C932881E223E8839FBFDF91CF9174
:1005700008958FB7F894EC91E22BEC938FBFF6CFF0
:10058000809118049091190497FD08C061E00E94C1
:100590008F0260E0809118040E94350281E0809310
:1005A000130408951F93CF93DF93182FEB0161E09D
:1005B0000E948F02209739F460E0812FDF91CF9164
:1005C0001F910C943502CF3FD10511F461E0F5CFB6
:1005D000E12FF0E0EE58FF4FE491E33031F140F4C9
:1005E000E130B1F0E230E1F0C038D1057CF7E4CF82
:1005F000E73029F1E83059F1E430B1F7809180001B
:10060000806280938000D0938B00C0938A0004C0E6
:1006100084B5806884BDC7BDDF91CF911F910895D7
:1006200084B5806284BDC8BDF7CF809180008068AA
:1006300080938000D0938900C0938800EDCF809193
:10064000B00080688093B000C093B300E5CF809184
:10065000B00080628093B000C093B400DDCF3FB79C
:10066000F89480916C0290916D02A0916E02B0910D
:100670006F0226B5A89B05C02F3F19F00196A11D5A
:10068000B11D3FBFBA2FA92F982F8827BC01CD01DC
:10069000620F711D811D911D42E0660F771F881F3B
:1006A000991F4A95D1F70895CF92DF92EF92FF926A
:1006B0000F931F93CF93DF93CDB7DEB729970FB674
:1006C000F894DEBF0FBECDBF80911B0490911C0437
:1006D000892B09F480C0C0902104D0902204E090BE
:1006E0002304F09024040E942F036C157D058E05D1
:1006F0009F0550F40E942F036093210470932204FD
:1007000080932304909324040E942F0300912104DA
:10071000109122042091230430912404601B710B5A
:10072000820B930B6C32714081059105A0F2F89415
:1007300080911604909117049A838983E0911B0499
:10074000F0911C04DF011196808189879091120439
:10075000E0912504F091260480912704992309F45F
:1007600049C09081982B98879081809589238F83A9
:100770008F818C8388E08B8358856F8149853B818D
:100780002C8189819A81508347FD252F3A952083BA
:10079000262F39F0441F00C000006083000000C015
:1007A000F2CF38E04D9160830000019761F7F0933C
:1007B0002604E093250449873B832C839A8389830D
:1007C00078940E942F0360932104709322048093F5
:1007D00023049093240429960FB6F894DEBF0FBE2D
:1007E000CDBFDF91CF911F910F91FF90EF90DF90E0
:1007F000CF9008959081982B988790818095892338
:100800008F838F818E8388E08D8358856F814985A2
:100810003D812E8189819A81508347FD252F00C01B
:1008200000C0208300C000C000C000C000C06083C2
:100830000000262F3A9541F0441F000000C000C080
:1008400000C000C000C0E8CF38E04D9100C0608318
:1008500000C0019709F7F0932604E0932504498727
:100860003D832E83ABCF8F929F92AF92BF92CF9258
:10087000DF92EF92FF926B017C010E942F034B01EC
:100880005C01C114D104E104F104B9F00E942F030A
:10089000681979098A099B09683E734081059105A9
:1008A00080F321E0C21AD108E108F10888EE880E31
:1008B00083E0981EA11CB11CE4CFFF90EF90DF9065
:1008C000CF90BF90AF909F908F9008952091FB02A2
:1008D0003091FC022817390771F49091F902809148
:1008E000FA02981741F0E091F902F0E0E55DFD4F62
:1008F000808190E008958FEF9FEF08950895EF9223
:10090000FF920F931F93CF93DF93DC015C96ED90E2
:10091000FC905D97E114F10479F481E090E0139686
:100920009C938E93129790E080E0DF91CF911F917E
:100930000F91FF90EF9008955196ED91FC91529791
:1009400050968C915097982F90950FB75E962C915A
:100950005E97122F127021FD6095F894208111236B
:1009600019F1282B2083E7012197F1F728E0462F82
:1009700050E0308160FF1AC0382B3083E7012197A7
:10098000F1F7BA0175956795215089F7112381F028
:100990008081892380830FBF5C968D919C91019704
:1009A000F1F781E090E0C1CF2923DCCF3923E5CFF7
:1009B0009081892BEFCF2091FB023091FC02281708
:1009C000390771F48091FA022091F90290E0805C7D
:1009D0009F4F821B910960E470E00E94AB1F089555
:1009E00090E080E008952091FB023091FC022817EE
:1009F0003907B9F49091F9028091FA02981789F0B9
:100A0000E091F902F0E0E55DFD4F80812091F9026F
:100A100030E02F5F3F4F2F7333272093F90290E090
:100A200008958FEF9FEF0895E091FB02F091FC0293
:100A3000E817F90769F4A389B4899C9185898095A1
:100A400089238C931092FC021092FB0281E008959E
:100A500080E008951092F4031092F3031092F203D1
:100A60001092F1031092F0031092EF038DE991E0E0
:100A70009093F6038093F5039091E503963108F087
:100A800046C02DEB30E03093F0032093EF032BE9C9
:100A900031E03093F2032093F1032CE231E0309304
:100AA000F4032093F3032091680084E0983048F029
:100AB00031E09E3008F430E081E001C0880F3A95C3
:100AC000EAF7822B809368002DE630E0983050F0F2
:100AD0002BE630E09E3030F02CE630E0963110F01E
:100AE00030E020E03093ED032093EC03292F30E039
:100AF0009830C0F581E001C0880F9A95EAF780939D
:100B0000EE038091F5039091F6030197F1F7809140
:100B1000F3039091F403892B21F18091FB029091D2
:100B2000FC0223E0893D9207E1F0009711F00E945A
:100B300014058091F7038E7F8093F7031092FA02D9
:100B40001092F90289ED93E09093FC028093FB02EE
:100B5000E091EC03F091ED0380819091EE03892BFD
:100B6000808308959E3040F42850310981E001C00F
:100B7000880F2A95EAF7C3CF2E503109F7CF20917D
:100B8000E101260F3327331F21323105ECF4209188
:100B90000502FC0190E080E0243069F082E00895D5
:100BA000A091E1012191AC014F535E4FA40FB52FED
:100BB000B11D2C930196861798F38091E101680F7F
:100BC0006093E10180E0089581E0089510920502AC
:100BD00081E0809307021092060261E082E10E94A8
:100BE000350261E083E10E943502E9EBF0E08081AB
:100BF0008E7F808380818D7F808388E48093B8009E
:100C000085E48093BC000895CF93DF9391E09093A7
:100C1000C0018823B9F0C091B800D091BA0080918A
:100C2000BC008A7B8093BC0060E082E10E943502B8
:100C300060E083E10E9435020E94E605D093BA008D
:100C4000C093B800DF91CF910895E09104038091A3
:100C50000303E81730F4F0E0E556FE4F808190E0A2
:100C600008958FEF9FEF08959091040380910303FF
:100C70002FEF3FEF981748F4E92FF0E0E556FE4FCD
:100C8000208130E09F5F90930403C9010895809113
:100C9000030390910403891B990B0895CF92DF926F
:100CA000EF92FF920F931F93CF93DF937C01CB01C1
:100CB0008A0120919A01222389F0EB016B01C40E75
:100CC000D51ECC15DD0569F06991D701ED91FC9138
:100CD0000190F081E02DC7010995F3CF642F0E94A8
:100CE000BF05C801DF91CF911F910F91FF90EF9049
:100CF000DF90CF900895CF93DF931F92CDB7DEB7EB
:100D0000698320919A012223F9F020910103203276
:100D100058F021E030E0FC013383228390E080E052
:100D20000F90DF91CF91089580910203E82FF0E0BA
:100D3000E658FE4F998190838F5F809302038093E2
:100D4000010381E090E0ECCF61E0CE0101960E94CA
:100D5000BF05F7CFCF92DF92EF92FF920F931F93D1
:100D6000CF93DF93FC01C48121E020939A01C093CB
:100D7000790110920203109201038385682B82EAA5
:100D800093E00E947B06D0910103D13208F092C01B
:100D90000E942F036B017C0180910502811165C0C7
:100DA00082E08093050281E0809307028FEF8093B9
:100DB000040210922902D0932802AAE7B1E0E8E0E9
:100DC000F2E080E0D81385C010922A0280912A02B6
:100DD000CC0FC82BC0932A0280910602813009F003
:100DE0007CC0109206020E942F036B017C0180914F
:100DF0002A028093BB008091BC019091BD01A0911B
:100E0000BE01B091BF01892B8A2B8B2B99F00E94D8
:100E10002F030091BC011091BD012091BE013091C2
:100E2000BF016C197D098E099F090617170728074E
:100E30003907E0F18091BC0083FDD9CF85EC809328
:100E4000BC000E942F036B017C018091050282305F
:100E500009F445C0809104028F3F61F18091040242
:100E6000803241F18091040225C08091BC019091B3
:100E7000BD01A091BE01B091BF01892B8A2B8B2BA4
:100E800009F48ACF0E942F030091BC011091BD018B
:100E90002091BE013091BF016C197D098E099F0917
:100EA000061717072807390708F076CF8091BB018E
:100EB0000E940406109202031092010310929A01FC
:100EC000DF91CF911F910F91FF90EF90DF90CF9026
:100ED00008959D9191938F5F75CF85EEB0CF8091EE
:100EE000BC019091BD01A091BE01B091BF01892BC1
:100EF0008A2B8B2B09F4A9CF0E942F030091BC01F0
:100F00001091BD012091BE013091BF016C197D0986
:100F10008E099F09061717072807390708F095CF8C
:100F2000C5CF089590E080E00895FC01EE0FFF1F0B
:100F3000E352FD4F20813181232B39F421E030E051
:100F40003183208361E00C948F0208958F929F92E9
:100F5000AF92BF92CF92DF92EF92FF920F931F93C7
:100F6000CF93DF93CDB7DEB76B970FB6F894DEBFA4
:100F70000FBECDBF8C01F894CE0101967C0188E1B3
:100F8000D7011D928A95E9F7C8010E9495078091C3
:100F90009E02898F80919C028A8F8091A0028B8F04
:100FA000FE017996C7015E01BCE1AB0EB11CA70141
:100FB000A1918A2E912C27E030E06A01C20ED31E47
:100FC000B401022E02C0759567950A94E2F761702C
:100FD000D6016C932150310980F7485F5F4FEA15C5
:100FE000FB0531F79801225031092630310508F010
:100FF000EDC00330110509F052C05B9825E50F9252
:101000000F900F920F900F920F902150C1F7E8E1CF
:10101000EE0EF11C27E030E0FC01E20FF31F4081EF
:10102000413009F07BC00330110509F04DC05B9AD7
:101030004AE10F920F900F920F900F920F90415034
:10104000C1F70330110509F054C05B9849E10F92D4
:101050000F900F920F900F920F904150C1F72150B7
:101060003109D0F60896E816F906A1F60330110505
:1010700009F097C05B9A78946B960FB6F894DEBF30
:101080000FBECDBFDF91CF911F910F91FF90EF90D9
:10109000DF90CF90BF90AF909F908F9008950430D5
:1010A000110511F45C98AACF0530110511F45D9873
:1010B000A5CF0630110511F45E98A0CF07301105B9
:1010C00009F09CCF5F989ACF0430110511F45C9A17
:1010D000AFCF0530110511F45D9AAACF0630110586
:1010E00011F45E9AA5CF0730110509F0A1CF5F9AE0
:1010F0009FCF0430110511F45C98A8CF053011057D
:1011000011F45D98A3CF0630110511F45E989ECFBF
:101110000730110509F09ACF5F9898CF0330110579
:10112000C1F45B9A4FE00F920F900F920F900F92C5
:101130000F904150C1F703301105F9F45B984EE070
:101140000F920F900F920F900F920F904150C1F796
:1011500086CF0430110511F45C9AE4CF05301105F7
:1011600011F45D9ADFCF0630110511F45E9ADACFE3
:1011700007301105B9F65F9AD5CF0430110511F487
:101180005C98DDCF0530110511F45D98D8CF06309D
:10119000110511F45E98D3CF0730110581F65F98E1
:1011A000CECF0430110511F45C9A65CF05301105DE
:1011B00011F45D9A60CF0630110511F45E9A5BCF91
:1011C0000730110509F057CF5F9A55CF9801285085
:1011D00031092630310508F04ECF0830110509F0ED
:1011E0003FC0289825E50F920F900F920F900F9215
:1011F0000F902150C1F728E1E20EF11C27E030E00A
:10120000FC01E20FF31F4081413009F06BC0083050
:10121000110509F03BC0289A4AE10F920F900F92F6
:101220000F900F920F904150C1F70830110509F04F
:1012300043C0289849E10F920F900F920F900F92A0
:101240000F904150C1F721503109D0F60896E816A9
:10125000F906A1F60830110509F08BC0289A0BCFCA
:101260000930110511F42998BDCF0A30110511F488
:101270002A98B8CF0B30110511F42B98B3CF0C304E
:10128000110511F42C98AECF2D98ACCF0930110573
:1012900011F4299AC1CF0A30110511F42A9ABCCF52
:1012A0000B30110511F42B9AB7CF0C30110511F446
:1012B0002C9AB2CF2D9AB0CF0930110511F429988C
:1012C000B9CF0A30110511F42A98B4CF0B301105AB
:1012D00011F42B98AFCF0C30110511F42C98AACF34
:1012E0002D98A8CF08301105C1F4289A4FE00F922D
:1012F0000F900F920F900F920F904150C1F708304E
:10130000110509F528984EE00F920F900F920F905B
:101310000F920F904150C1F796CF0930110511F48B
:10132000299AE4CF0A30110511F42A9ADFCF0B3045
:10133000110511F42B9ADACF0C30110511F42C9A07
:10134000D5CF2D9AD3CF0930110511F42998DBCFD1
:101350000A30110511F42A98D6CF0B30110511F47B
:101360002B98D1CF0C30110511F42C98CCCF2D989F
:10137000CACF0930110511F4299A7DCE0A30110522
:1013800011F42A9A78CE0B30110511F42B9A73CEF2
:101390000C30110511F42C9A6ECE2D9A6CCE682F5C
:1013A00085E093E00C9476010F931F93CF93DF9326
:1013B0008B01D82FC92F82E00E94CF09C801AD2F21
:1013C000BC2F8093740190937501A0937601B09324
:1013D00077010E94CF09812F0E94CF098D2F0E9493
:1013E000CF098C2FDF91CF911F910F910C94CF09D2
:1013F0008FEF0E94CF0985E50C94CF094F925F9241
:101400006F927F928F929F92AF92BF92CF92DF9214
:10141000EF92FF920F931F93CF93DF9300D0CDB73E
:10142000DEB78C0149832A83660F771FF801EA5AD9
:10143000FF4FE080F180EE0CFF1CF801CF01801B14
:10144000910B8E159F0514F41192F8CF8981F80144
:10145000E60FF71F81838A818083680184E5C80EC7
:10146000D11C60E0F60180810E9435025801F2E54E
:10147000AF0EB11C480180E5880E911C1E141F049C
:101480000CF5E1E0EE1AF108F801EE0DFF1D6080A9
:10149000F5015080F401408088E0782E662D661FAB
:1014A0006627661F842D0E943502660C61E0852D3B
:1014B0000E94350260E0852D0E9435027A947110F9
:1014C000EDCFDCCF61E0F60180810F900F90DF91CE
:1014D000CF911F910F91FF90EF90DF90CF90BF9031
:1014E000AF909F908F907F906F905F904F900C94F3
:1014F0003502CF92DF92EF92FF921F93CF93DF934B
:101500007C016B01EB0183E0CC0FDD1F8A95E1F7D5
:101510006096CE0DDF1D11E0199220E0412FB6013B
:10152000C7010E94FE091F5F1930B1F7DF91CF910B
:101530001F91FF90EF90DF90CF9008958F929F9230
:10154000AF92BF92CF92DF92EF92FF920F931F93D1
:10155000CF93DF938C01D62EC72EEC01C05BDF4FFB
:10156000688379834C0182E5880E911CF4015183D4
:1015700040835801F4E5AF0EB11CF501318320839F
:101580007801F6E5EF0EF11C81E090E0F701918320
:10159000808361E08D2D0E948F0261E0F4018081E3
:1015A0000E948F0261E0F50180810E948F0261E05C
:1015B000F50180810E943502D882C982F8017096B7
:1015C0001192EC17FD07E1F7D0E0C0E0F701808150
:1015D0009181C817D90784F520E04FE0BE01C8010A
:1015E0000E94FE09F70180819181C817D90734F460
:1015F00027E04BE0BE01C8010E94FE0920E049E05F
:10160000BE01C8010E94FE09F70180819181C817BF
:10161000D90724F4BE01C8010E94790AF70180812C
:101620009181C817D90734F420E04CE0BE01C8010D
:101630000E94FE092196CACFDF91CF911F910F9191
:10164000FF90EF90DF90CF90BF90AF909F908F90E2
:1016500008950F931F93CF938C01C62F0E94AA0663
:101660006C2F6460C8010E94AA066C2F6B7FC801B2
:101670000E94AA0683EC90E00197F1F7CF911F91A9
:101680000F9108950F931F93CF93DF938C01D62F63
:10169000C42F607F642B0E94290B80E1D89FB0018A
:1016A00011246C2BC801DF91CF911F910F910C94E5
:1016B000290B40E061E086E094E00E94420B8BE35E
:1016C0009FE10197F1F70895CF93DF931092040300
:1016D0001092030310920203109201030E94E60588
:1016E0008EE890E0909300038093FF028FE890E0F3
:1016F0009093FE028093FD0210920B0480911004DF
:10170000823018F098E090930B0480930E0462E30B
:1017100070E080E090E00E9433046091110486E064
:1017200094E00E94AA0668EE73E080E090E00E94D8
:10173000330460E386E094E00E94290BCBE4D6E416
:10174000CE010197F1F760E386E094E00E94290B57
:101750002197F1F760E386E094E00E94290B83E58E
:1017600092E00197F1F760E286E094E00E94290B95
:1017700060910B04606240E086E094E00E94420BBE
:1017800084E080930C0440E06CE086E094E00E94EA
:10179000420B0E94590B82E080930D0440E066E00A
:1017A00086E094E00E94420B40E062E086E094E034
:1017B0000E94420B8BE39FE10197F1F7DF91CF91FC
:1017C00008950E94640B88E08093110460E086E035
:1017D00094E00E94AA060C94590B41E00E94420B2F
:1017E00081E090E0089542E050E061E771E085E03B
:1017F00093E00C94D6008FEF0E94CF0985E50E94FC
:10180000CF090C94F30B8F929F92AF92BF92CF921D
:10181000DF92EF92FF920F931F93CF93DF93C091CC
:10182000930280910504882309F0F8941092000433
:101830001092010410920204109203041092040406
:1018400061E08C2F0E948F0260E08C2F0E94350295
:1018500062E170E080E090E00E94330460E08C2F51
:101860000E948F028BE990E00197F1F700E911E007
:101870008C2F0E940C02892B09F062C001501109C3
:10188000B9F78EEF9FEF20910504222309F0789499
:10189000892B09F49EC080E090ECA9E7B4EC80931A
:1018A000F8039093F903A093FA03B093FB0380939A
:1018B000FC039093FD03A093FE03B093FF0380907D
:1018C000FC039090FD03A090FE03B090FF03C09036
:1018D000F803D090F903E090FA03F090FB0362E381
:1018E00070E080E090E00E9433048091DA02882367
:1018F00059F00E94F809C501B4010E94D40983E19E
:101900000E94CF090E94F30B8091DB02882309F427
:10191000AFC00E94F809C701B6010E94D40982E154
:101920000E94CF09DF91CF911F910F91FF90EF900F
:10193000DF90CF90BF90AF909F908F900C94F30B5F
:1019400000E911E08C2F0E940C02019721F4015054
:101950001109C1F796CF18E2D0E800E090E9E92E2E
:10196000FF24F3948C2F0E940C02892B29F481E030
:10197000E81AF108B9F785CF0E942F036B017C01AB
:1019800080E9A82EBB24B3948C2F0E940C020197EF
:1019900029F481E0A81AB108B9F773CF0E942F0388
:1019A0006C197D098E099F096932710581059105C0
:1019B00038F0E02FF0E0E850FC4F80858D2B8087D9
:1019C000D69511F40F5FD0E8115041F690E080E019
:1019D0005ACF6091010470E090E080E00E94C71C43
:1019E0002DEC3CEC4CEC5DE30E94261D6B017C0170
:1019F0006091000470E090E080E00E94C71C9B01B1
:101A0000AC01C701B6010E94771E6093F803709382
:101A1000F9038093FA039093FB03C0910204609151
:101A2000030470E090E080E00E94C71C2DEC3CECC9
:101A30004CEC5DE30E94261D6B017C016C2F6F77DF
:101A400070E090E080E00E94C71C9B01AC01C701E0
:101A5000B6010E94771EC7FD09C06093FC03709316
:101A6000FD038093FE039093FF0329CF9058F5CF99
:101A7000DF91CF911F910F91FF90EF90DF90CF906A
:101A8000BF90AF909F908F900895CF92DF92EF928A
:101A9000FF920F931F93CF93DF93EC016B018A01A9
:101AA000198218861F86188A198A1A8A81E08E87F9
:101AB0008B871C8692E09D8788837B01EE0CFF1C40
:101AC000E60EF71EFD82EC82C7010E94CC1F9A87AA
:101AD0008987009779F1A70170E060E00E94B72143
:101AE000DB82CA821F830E838981882341F061E0F3
:101AF000802F0E948F0260E0802F0E943502F80143
:101B0000E556FF4FE491F0E0EE0FFF1FEF56FF4F59
:101B1000859194919C8B8B8BF801E155FF4FE4915B
:101B2000ED8BDF91CF911F910F91FF90EF90DF90A0
:101B3000CF9008951D821C821B821A82D3CFFC0194
:101B400080819181009711F00C94682008950F9383
:101B50001F93CF93DF93EC0188819981009759F00F
:101B60002A813B812617370730F081E0DF91CF9142
:101B70001F910F9108958B016F5F7F4F0E94F1209D
:101B8000009759F0998388831B830A832C813D81B8
:101B9000232B59F7FC011082E8CF80E0E7CFEF92CA
:101BA000FF920F931F93CF93DF93EC017B018A0188
:101BB000BA010E94A70D28813981811114C0211515
:101BC000310519F0C9010E946820198218821D820E
:101BD0001C821B821A82CE01DF91CF911F910F913F
:101BE000FF90EF9008951D830C83B701C9010E94F7
:101BF000BE21F1CF50E040E063E771E083ED93E078
:101C00000C94CF0D85ED8093BC008091BC01909128
:101C1000BD01A091BE01B091BF010796A11DB11DEC
:101C200023E0B695A795979587952A95D1F72091AA
:101C3000BC0024FD03C01092050208954091BC0130
:101C40005091BD016091BE017091BF01452B462BA3
:101C5000472B69F30097A105B10541F025E32A95CB
:101C6000F1F700000197A109B109E1CF8091BB0113
:101C70000C9404061F920F920FB60F9211242F930B
:101C80003F934F935F936F937F938F939F93AF9304
:101C9000BF93EF93FF938091770290917802A09188
:101CA0007902B0917A02892B8A2B8B2BD1F19091FA
:101CB0007202E0917302F09174028081892780831F
:101CC0008091770290917802A0917902B0917A0286
:101CD000181619061A061B069CF48091770290913B
:101CE0007802A0917902B0917A020197A109B10915
:101CF0008093770290937802A0937902B0937A024E
:101D0000FF91EF91BF91AF919F918F917F916F91D3
:101D10005F914F913F912F910F900FBE0F901F90A9
:101D20001895809100010E946302EACF1F920F92E2
:101D30000FB60F9211242F933F934F935F936F939E
:101D40007F938F939F93AF93BF93EF93FF9385E020
:101D500093E00E945401FF91EF91BF91AF919F9149
:101D60008F917F916F915F914F913F912F910F9044
:101D70000FBE0F901F9018951F920F920FB60F92E3
:101D800011242F938F939F93EF93FF93E09115036B
:101D9000F09116038081E0911B03F0911C0382FDFA
:101DA0001BC0908180911E038F5F8F7320911F0352
:101DB000821741F0E0911E03F0E0EB5FFC4F958F3E
:101DC00080931E03FF91EF919F918F912F910F9020
:101DD0000FBE0F901F9018958081F4CF1F920F9225
:101DE0000FB60F9211242F933F938F939F93AF932E
:101DF000BF938091D1029091D202A091D302B09171
:101E0000D40230916B0223E0230F2D3758F5019651
:101E1000A11DB11D20936B028093D1029093D20239
:101E2000A093D302B093D40280916C0290916D0282
:101E3000A0916E02B0916F020196A11DB11D809319
:101E40006C0290936D02A0936E02B0936F02BF91EB
:101E5000AF919F918F913F912F910F900FBE0F9057
:101E60001F90189526E8230F0296A11DB11DD2CF11
:101E70001F920F920FB60F9211242F933F934F93FF
:101E80005F936F937F938F939F93AF93BF93EF93E2
:101E9000FF93E091FB02F091FC02309749F0A68598
:101EA000B7858585968D91FF14C09C918923A1F4F7
:101EB000FF91EF91BF91AF919F918F917F916F9122
:101EC0005F914F913F912F910F900FBE0F901F90F8
:101ED00018959C91892361F7A389B4899C91858980
:101EE000809589238C93868997890197F1F7608D76
:101EF000718DA685B785558538E020E0CB01019727
:101F0000F1F7822F90E095958795282F4C914523E6
:101F100009F02068315091F7868D81FD20958091E0
:101F2000FA0290E001968F7399273091F9023817E1
:101F300099F0A091FA02B0E0A55DBD4F2C9380937B
:101F4000FA02828D938D0197F1F7A389B4898C9160
:101F50009589892B8C93ACCF868D8160868FF1CF4C
:101F60001F920F920FB60F9211242F933F934F930E
:101F70005F936F937F938F939F93AF93BF93EF93F1
:101F8000FF938091B900887F803609F44AC0F0F54C
:101F9000883209F4A7C018F5803109F49BC0B8F461
:101FA000882309F4F9C0883009F494C0FF91EF91B7
:101FB000BF91AF919F918F917F916F915F914F9161
:101FC0003F912F910F900FBE0F901F901895883161
:101FD00009F488C0803251F78093040214C0803421
:101FE00009F49DC040F48033B9F38833F9F6809347
:101FF000040285ECB0C0803509F485C0883509F449
:1020000096C0883499F60E94020ED0CF883909F420
:102010008CC038F5883729F050F4883611F08037B5
:1020200029F683E0809305021092030257C0883896
:1020300009F47BC0803919F0803809F0B7CF80915E
:102040000302803208F071C0E091030281E08E0F3C
:10205000809303028091BB00F0E0ED51FE4F80833E
:102060003DC0803B39F0E0F4803A09F479C0883A09
:1020700009F09CCF84E0809305021092E201109257
:10208000E101E091FF02F091000309958091E101E7
:1020900081110FC081E08093E1011092C10109C05C
:1020A000803C09F4A6CF883C09F4A3CF883B09F013
:1020B0007DCFE091E20181E08E0F8093E201F0E0BC
:1020C000EF53FE4F80818093BB009091E20180919D
:1020D000E10129C080912A028093BB0085EC8093A6
:1020E000BC0064CF9091290280912802981758F57E
:1020F000E091290281E08E0F80932902F0E0E85FF1
:10210000FD4F8081E9CFE091290281E08E0F80931D
:1021100029028091BB00F0E0E85FFD4F8083909141
:102120002902809128029817C8F285E8D8CFE0915B
:10213000290281E08E0F809329028091BB00F0E09C
:10214000E85FFD4F80838091070281115CCF81E0C1
:102150008093060284EA8093BC001092050226CF89
:1021600085EC8093BC0010920502809103028032BE
:1021700030F4E0910302F0E0ED51FE4F10826091E7
:10218000030270E0E091FD02F091FE0283EE91E027
:102190000995109203020ACF1092040234CF1F92C5
:1021A0000F920FB60F9211242F933F934F935F938B
:1021B0006F937F938F939F93AF93BF93CF93DF934F
:1021C000EF93FF9380917801C091D203D0E087FF15
:1021D00024C01092850010928400809178018F5F56
:1021E0008093780180917801082E000C990B8C1750
:1021F0009D0724F4809178018C30C4F18091840093
:1022000090918500049680349C4908F47AC08091AE
:10221000840090918500049676C080917801082E04
:10222000000C990B8C179D07C4F6E09178018E2F56
:10223000EE0F990BFC01EE0FFF1FE80FF91FE2559F
:10224000FC4F808186FFC9CFE09178018E2FEE0F81
:10225000990BFC01EE0FFF1FE80FF91FE255FC4F31
:10226000808160E08F730E943502B7CF2091840097
:1022700030918500E09178018E2FEE0F990BFC01D3
:10228000EE0FFF1FE80FF91FE255FC4F818192818D
:10229000820F931F9093890080938800E0917801CA
:1022A0008E2FEE0F990BFC01EE0FFF1FE80FF91FA9
:1022B000E255FC4F808186FF11C0E09178018E2F9E
:1022C000EE0F990BFC01EE0FFF1FE80FF91FE2550F
:1022D000FC4F808161E08F730E943502FF91EF9186
:1022E000DF91CF91BF91AF919F918F917F916F912E
:1022F0005F914F913F912F910F900FBE0F901F90C4
:10230000189580E49CE990938900809388008FEF72
:1023100080937801E3CFCF92DF92EF92FF920F93F9
:102320001F93E82FF92F05C0015011092109310928
:1023300061F1908196239417B9F305C001501109FA
:102340002109310911F1908196239413F7CFC12C03
:10235000D12CE12CF12C0AC08FEFC81AD80AE80A58
:10236000F80A0C151D052E053F0579F0808186239E
:10237000841791F36C2D7D2D8E2D9F2D1F910F9124
:10238000FF90EF90DF90CF90089560E070E080E0E4
:1023900090E01F910F91FF90EF90DF90CF90089504
:1023A000109208031092070388EE93E0A0E0B0E0DB
:1023B0008093090390930A03A0930B03B0930C033B
:1023C00023E331E0309306032093050325EC30E04E
:1023D000309312032093110324EC30E03093140364
:1023E0002093130320EC30E0309316032093150361
:1023F00021EC30E0309318032093170322EC30E0F7
:1024000030931A032093190326EC30E030931C0319
:1024100020931B0310921E0310921F03109220039F
:10242000109221031092A5031092A4038093A60397
:102430009093A703A093A803B093A90385E491E028
:102440009093A3038093A203EBE2F4E023E434E04F
:102450004FEF68EB7BE08091D2038C3008F0DBC05B
:1024600091E0980F9093D203808390E0DC01AA0F53
:10247000BB1FA80FB91FA255BC4F12967C936E9339
:10248000119733962E173F0731F78091D2038C3086
:1024900008F0C3C091E0980F9093D2038093280472
:1024A00090E0FC01EE0FFF1FE80FF91FE255FC4F13
:1024B00088EB9BE09283818347E050E064E070E02A
:1024C00082E194E00E94450D1092090410920804E4
:1024D00089E691E0909307048093060487E2809355
:1024E0000A0480E180930F0482E08093100410922C
:1024F0001104109205041092FC031092FD03109237
:10250000FE031092FF031092F8031092F903109249
:10251000FA031092FB031092DC031092DB0388EEA7
:1025200093E0A0E0B0E08093DD039093DE03A093FE
:10253000DF03B093E00387E591E09093DA038093A3
:10254000D9031092F0031092EF031092F20310924D
:10255000F1031092F4031092F3031092F603109219
:10256000F5036091F7036E7F6D7F6093F7036695C7
:10257000617081E0682783E00E94350261E083E0BA
:102580000E948F02E2EBF0E0E491E093E903EEE9D0
:10259000F0E0E491F0E0EE0FFF1FEF56FF4F859162
:1025A00094919093EB038093EA0360E082E00E94B1
:1025B0008F028091F70381FD04C061E082E00E94F8
:1025C000350282E08093E503E1EBF0E0E491E093F3
:1025D000E603EDE9F0E0E491F0E0EE0FFF1FE957CC
:1025E000FF4F859194919093E8038093E7031092B5
:1025F000D4031092D3031092D6031092D5031092F5
:10260000D8031092D70350E040E063E771E083ED18
:1026100093E00C94CF0D408334CF8FEF8093280448
:102620004BCFCF93DF93CDB7DEB7AE970FB6F8940D
:10263000DEBF0FBECDBF789484B5826084BD84B503
:10264000816084BD85B5826085BD85B5816085BDAD
:1026500080916E00816080936E0010928100809165
:1026600081008260809381008091810081608093ED
:102670008100809180008160809380008091B10012
:1026800084608093B1008091B00081608093B0003D
:1026900080917A00846080937A0080917A008260D1
:1026A00080937A0080917A00816080937A00809193
:1026B0007A00806880937A001092C100E09115033F
:1026C000F091160382E08083E0911103F0911203F0
:1026D0001082E0911303F091140380E18083109243
:1026E0001D03E0911903F0911A0386E08083E091C5
:1026F0001703F0911803808180618083E0911703B4
:10270000F0911803808188608083E0911703F09135
:102710001803808180688083E0911703F09118038B
:1027200080818F7D80830E942A0514E061E0812FE3
:102730000E948F0260E0812F0E9435021F5F1E30D1
:10274000A9F70E94C0020E9454030E94E10B68ECAA
:1027500070E080E090E00E943304CE01429698A79A
:102760008FA385E093E00E943401892B09F4EFC622
:1027700085E093E00E9434011816190694F785E06D
:1027800093E00E9412019091CC02853589F5911158
:102790002FC08091CB028F3F29F481E08093CA0241
:1027A0008093CC028091CA028F5F8433C0F58093FE
:1027B000CA028091CC028823A1F28091C9028111C2
:1027C000D0CF8091CA02843060F21092CC02E091A6
:1027D0009A0200919B02E02EF12C20919902223066
:1027E00009F4E1C00CF5213039F11092CA02B9CFD9
:1027F0008093CB029923B1F2E091CA02E23039F41E
:102800008093C902F0E0EB56FD4F8083CBCFE330DD
:10281000C8F39091C90291509093C902F3CF1092DE
:10282000CA021092CC02C5CF233009F4D3C524309C
:10283000E1F60E94FB0BD9CFE73009F040C01091C0
:102840009C02812F90E03091DC02311129C020934D
:10285000DC02F0920C01E0920B0190930A0180934C
:102860000901F701EE0FFF1FE352FD4F21E030E0B9
:1028700031832083880F991FFC01E352FD4F318380
:10288000208361E0802F0E948F0260E0812F0E94F0
:102890008F0262E370E080E090E00E943304A5CFF5
:1028A00020910B0130910C01E216F30691F6209174
:1028B000090130910A012817390759F696CFF0E03F
:1028C000E231F10581F42093DB02F0929402E09270
:1028D0009302F701EE0FFF1FE352FD4F81E090E0FE
:1028E0009183808382CFE331F10519F42093DA02DA
:1028F000ECCFE930F10571F40E942A0560E082E036
:102900000E948F028091D90281116FCF81E0809364
:10291000D9026BCF3A9729F40E942A0561E083E03F
:10292000EFCF80910B0190910C01E816F90639F078
:102930008091090190910A01E816F90691F410922C
:10294000DC021092CD021092CE021092CF021092B1
:10295000D002F701EE0FFF1FE352FD4F11821082EC
:1029600044CF92E0E916F10469F489ED93E00E9406
:1029700014051092D9020E94FA0D1092E2021092F0
:10298000E10233CFE3E0EE16F10419F789ED93E0AD
:102990000E9414051092D9020E94FA0D1092E402CE
:1029A0001092E30222CF80910B0190910C01E81666
:1029B000F90639F08091090190910A01E816F906AB
:1029C00051F41092DC021092CD021092CE021092BD
:1029D000CF021092D002E150E13208F02ACF0E2E41
:1029E000000CFF0BEA50FB4E0C94BF1F5715191437
:1029F0006015C9186A1519141914AA19191419148B
:102A000019141914B619D2191914191419141914FE
:102A100019149417B617F5170318241828186218F4
:102A20006A183E18191419141914191417150E944C
:102A3000640B0E94590B88E590E00E94CC1F8C012A
:102A40002091070130910801409105015091060144
:102A500060910301709104010E949E0AF801EA5AF4
:102A6000FF4F80819181181619062CF470E060E008
:102A7000C8010E94790AC8010E94682020E040E055
:102A800060E090E080E00E94900020E040E060E0A4
:102A900081E090E00E94900020E040E060E082E071
:102AA00090E00E94900020E040E060E0CAC2C701D0
:102AB0000E94950760919C02802F0E943502B9CE3A
:102AC000C7010E94950760919C0270E0802F0E94D0
:102AD000D202AFCEC7010E94950780919C028093DD
:102AE000700280919D02809371028091700290919A
:102AF00071029AA789A780919E02809370028091AB
:102B00009F0280937102E0917002F0917102FEA722
:102B1000EDA71E161F060CF003C2809100010813DA
:102B2000CEC0E6E8F0E0149117FD83CE61E0802F7F
:102B30000E948F021123B9F089A59AA52C01712C4E
:102B4000612C60E072E18AE790E0A30192010E94AB
:102B5000E41D69017A0191E0C91AD108E108F10880
:102B6000123009F09AC1E9A5FAA52F01712C612C48
:102B700060E072E18AE790E0A3019F010E94E41DFA
:102B800049015A017A016901F1E0CF1AD108E1083F
:102B9000F1082FEFC216D104E104F10409F00CF49E
:102BA0004FC160E472E48FE090E0A30192010E94C3
:102BB000E41D69017A0181E0C81AD108E108F10831
:102BC000123009F0F3C082E09FEFC916D104E1048E
:102BD000F10409F00CF46CC060E970ED83E090E062
:102BE000A30192010E94E41D69017A01E1E0CE1A7D
:102BF000D108E108F10883E0FFEFCF16D104E1042A
:102C0000F10409F00CF454C068E478EE81E090E03F
:102C1000A30192010E94E41D69017A0191E0C91AA1
:102C2000D108E108F10884E0EFEFCE16D104E10409
:102C3000F104F1F1ECF164E274EF80E090E0A301C3
:102C400092010E94E41D69017A0191E0C91AD1083C
:102C5000E108F10885E09FEFC916D104E104F10411
:102C600039F130F162E17AE780E090E0A30192016E
:102C70000E94E41D69017A01F1E0CF1AD108E10850
:102C8000F10886E02FEFC216D104E104F10481F0CF
:102C900078F0750164019AE0F594E794D794C794AD
:102CA0009A95D1F781E0C81AD108E108F10887E0C8
:102CB0009091B100987F892B8093B100C8C08F3F5D
:102CC00009F0B7CD00930001E6E8F0E014911F3F52
:102CD00009F4AFCD113031F150F0123009F442C097
:102CE00017FDA7CD61E0802F0E948F0225CF14BC75
:102CF00015BC84B5826084BD85B5816085BDF70152
:102D0000E556FF4FE491F0E0EE0FFF1FEF56FF4F47
:102D100085919491F701E155FF4FE491E09376029C
:102D200010E004CF10928000109281008091810009
:102D30008860809381008091810081608093810010
:102D4000F701E556FF4FE491F0E0EE0FFF1FEF565D
:102D5000FF4F85919491F701E155FF4FE491E09386
:102D60007502E4CE1092B0001092B1008091B000D4
:102D700082608093B0008091B10081608093B10047
:102D8000F701E556FF4FE491F0E0EE0FFF1FEF561D
:102D9000FF4F859194919093740280937302F70191
:102DA000E155FF4FE491E0937202C0CE2FEFC216BF
:102DB000D104E104F10409F00CF46DC068E478EE8C
:102DC00081E090E0A30192010E94E41D69017A0173
:102DD00081E0C81AD108E108F10884E011113BCF65
:102DE0008FEFC816D104E104F10409F014F483E074
:102DF0002AC062E17AE780E090E0A30192010E949C
:102E0000E41D69017A01E1E0CE1AD108E108F10878
:102E100084E0FFEFCF16D104E104F104A1F098F0B3
:102E2000750164012AE0F594E794D794C7942A9534
:102E3000D1F721E0C21AD108E108F10885E003C00A
:102E400081E0111135CF95B5987F892B85BD29A5D6
:102E50003AA5220F331FADA5BEA50E94C51F28EEBF
:102E600033E040E050E00E94451E1130B9F11230CD
:102E700009F446C01111DDCCC7BC20937F0230930A
:102E80008002409381025093820280916E008260A2
:102E900080936E00CECC82E0D4CF91E0C114D104F7
:102EA00021E0E206F10484F068E478EE81E090E04D
:102EB000A30192010E94E41D69017A0181E0C81A10
:102EC000D108E108F10893E0113009F0C0CF8091FA
:102ED0008100887F892B80938100B9CFD0928900AF
:102EE000C092880020937B0230937C0240937D0245
:102EF00050937E0280916F00826080936F0099CC26
:102F0000C092B30020937702309378024093790205
:102F100050937A028091700082608093700089CC17
:102F2000802F0E94630285CCC7010E9495076091A3
:102F30009C0270E0A701CE0101960E94450D86E13A
:102F4000FE013196A2E1B4E001900D928A95E1F77D
:102F50008A859B850E9468208F81988597FD03C094
:102F600060E00E948F020E94C00288CD80919C0286
:102F7000FF24F394F80E20911A04F21609F459CCA8
:102F800000911B0410911C04215070E060E061F07E
:102F90008F3FF1F430E050E040E06FEF7FEF80E0F2
:102FA00090E00E94E41DB901F8014091160450918F
:102FB0001704CF01801B910B8417950798F440816B
:102FC000469FC001479F900D112490833196EDCF0D
:102FD0008F2D90E0982F88270197622F70E00E9434
:102FE000971FE2CFF0921A0424CC80919C0220918A
:102FF000A2024091A00260919E0290E00E94900087
:103000000E94540316CC10919C0200919E02F090F5
:10301000A0022F2D402F612F90E080E00E949000B1
:103020002F2D402F612F81E090E00E9490002F2DE6
:10303000402F612F82E090E00E9490002F2D402FC2
:10304000612F83E090E0DACFC7010E94950716CD8B
:1030500080919C0290E09093040180930301809101
:103060009E0290E090930601809305018091A0025A
:1030700090E09093080180930701DBCB88E590E016
:103080000E94CC1F8C0120910701309108014091D2
:1030900005015091060160910301709104010E94A5
:1030A0009E0AF801EA5AFF4F80819181181619068D
:1030B0002CF470E060E0C8010E94790AC8010E9407
:1030C0006820B7CB80919C0290E09093020180939E
:1030D0000101AFCB88E590E00E94CC1F8C012091CC
:1030E000070130910801409105015091060160915E
:1030F0000301709104010E949E0A680196E5C90EC1
:10310000D11CF60180819181181619063CF421E04A
:103110004CE070E060E0C8010E94FE0920910101CE
:1031200030910201F60180819181181619064CF444
:103130002031310530F44AE070E060E0C8010E94BF
:10314000FE0988E0E3E1F1E0DE01119601900D92C5
:103150008A95E1F7CE0101965C0178019924939458
:10316000F50121915F01F601808191811816190600
:1031700044F4F701208B492D70E060E0C8010E9403
:10318000FE09FFEFEF1AFF0A939429E09212E8CFAD
:1031900095CFC7010E949507B0909C0284EB8B15D8
:1031A00008F447CBE3E8F2E090E080E02191319130
:1031B000E216F30651F0232B09F0C4C0FC01EE0F18
:1031C000FF1FED57FD4FF182E082FC01EE0FFF1F64
:1031D000E80FF91FE55DFB4F80812181928180938B
:1031E00028042093290490932A048C3008F053C0BB
:1031F00061E0802F0E948F0280912804282F30E008
:10320000F901EE0FFF1FE20FF31FE255FC4F902F65
:103210009F730081007C092B008310922904109277
:103220002A042CE0622F0E948B1F829FB001112480
:1032300030E020E0AB01420F531FFA01EE0FFF1FF9
:10324000E40FF51FE255FC4F908196FD16C02F5FED
:103250003F4F2C30310571F781110FC01092800063
:1032600082E0809381001092850010928400B19AD0
:1032700080916F00826080936F00E09128048E2F10
:1032800090E0FC01EE0FFF1FE80FF91FE255FC4F25
:10329000808180648083F090280480912A04B8E5BE
:1032A000CB2EB2E0DB2EC81AD10887FDD394CC0C0C
:1032B000DD1CCC0CDD1C8091290408E810E0081B03
:1032C000110987FD1395000F111F000F111F280111
:1032D000012E000C6608770896010D2C000C440B9B
:1032E000550B2419350946095709AB2DB0E00E944A
:1032F000031E24EB30E040E050E00E94E41D420E4B
:10330000531E641E751EEBE0EF1508F492CA4016BA
:1033100051062CF086014C145D040CF4820102501D
:103320001109000F111F2FB7F8948F2D90E0FC01A9
:10333000EE0FFF1FE80FF91FE255FC4F12830183C8
:103340002FBF77CA01968830910509F02FCF90E002
:1033500080E03BCF8FB7F8944091D1025091D202D8
:103360006091D3027091D4028FBF63CAC7010E94DB
:10337000A6076AE070E080E090E00E943304C70195
:103380000E94A6076AE070E080E090E00E943304AB
:10339000C7010E94A6076AE070E080E090E00E940A
:1033A000330447CAE0909C02F0909E02D090A002A5
:1033B0000091A20210E08E2D90E00E9495078F2DC3
:1033C00090E00E9495076D2D8E2D0E943502B80168
:1033D0008F2D7DCBEB3081F134F4EA3009F49BC0C2
:1033E0000E94FB0B26CAEC3021F1E131C9F7809134
:1033F000A00290919E0220919C02109209041092CA
:103400000804211114C027E220930A0410920B042F
:1034100010920C0410920D0410920E0490930F045D
:1034200080931004109211040E94E10BD9CF2FE376
:10343000EBCF0E94590BD4CFB0909C02A0909E027B
:103440000091A00210E01AA219A21CA21BA21EA2A7
:103450001DA250E040E063E771E0CE0181960E943A
:10346000CF0DE2EACE2EE2E0DE2E035F1F4FC60153
:103470008559924080179107FCF4F60181916F0104
:1034800089831A82EDA0FEA0FFEFEF1AFF0AB701B1
:10349000CE0181960E94A70D882349F329A13AA164
:1034A0008DA19EA1BE016F5F7F4F820F931F0E946F
:1034B000BE21FEA2EDA2DBCF88E0EBE1F1E0DE0170
:1034C000119601900D928A95E1F780910E048B156B
:1034D00018F4BB24BA94B80EEB2DF0E0EE0FFF1FEA
:1034E00081E090E08C0F9D1FE80FF91F60816A0D4D
:1034F000606840E086E094E00E94420B4DA15EA12E
:1035000069A17AA186E094E00E94D600CE0181965E
:103510000E949F0D65CFA5E9B2E0FE013196BF0183
:1035200017968C911797819312968FA198A58E1755
:103530009F07B1F7FB0101900020E9F73197AF0138
:10354000461B570B89ED93E00E94D60049CF89EDC9
:1035500093E00E94DB047C01892B71F189ED93E0FB
:103560000E94DB041816190694F789ED93E00E9477
:10357000F30489831A820091D7031091D8030F5F57
:103580001F4FB80183ED93E00E94A70D8823F9F245
:103590002091D3033091D4038091D7039091D80325
:1035A000BE016F5F7F4F820F931F0E94BE21109359
:1035B000D8030093D703CBCF6FE070E080E090E0BA
:1035C0000E94330405EE12E064E0D62EF8018191EA
:1035D00091918F01892BD9F460E08D2D0E948F028B
:1035E0000E94F8098D2D0E940C02BC01990F880BD6
:1035F000990B0E94C71C0E94D4098D2D0E94CF09EF
:1036000081E00E94CF090E94F30B0E94FB0BD39430
:10361000FEE0DF12DBCF53E2A52E51E0B52E10E025
:10362000F501819191915F01892B09F060C044E11E
:10363000C42ED12C55245394012F006400937C0098
:1036400080917A00806480937A0080917A0086FD70
:10365000FCCF8091780060917900762F682F072E3B
:10366000000C880B990B0E94C71C3B014C01552094
:1036700019F06BA77CA61C012DEC3CEC4CEC5DE337
:103680006BA57CA5C1010E94261D1B012C0126E60D
:1036900036E646E65FE3B301C4010E94261D9B01A6
:1036A000AC01C201B1010E94771E6BA77CA71C016F
:1036B000F1E0CF1AD108512C09F0C0CF0E94F809CF
:1036C0006BA57CA5C1010E94551F072E000C880B1D
:1036D000990B0E94C71C0E94D409812F0E94CF0918
:1036E00082E00E94CF090E94F30B0E94FB0B1F5F38
:1036F000163009F095CF8091DC02882309F46FC061
:1037000010910B0160E0812F0E94350283E090E070
:103710000197F1F761E0812F0E94350283E290E08A
:103720000197F1F760E0812F0E9435028091090135
:1037300090910A019927FC01E155FF4F6491FC012A
:10374000E556FF4FE491F0E0EE0FFF1FE957FF4F02
:103750008591949100E315E720E030E0462F0E9428
:103760008B11611571058105910529F06F5F7F4F00
:103770008F4F9F4F9F700E94C51C20E030E048EEA5
:1037800051E40E94E31E20E030E040E05FE30E944D
:10379000261D4B015C0120E030E0A9010E94C01C05
:1037A000811185C08090CD029090CE02A090CF0272
:1037B000B090D0020E94F809C501B4010E94D4095A
:1037C00080910B010E94CF09809109010E94CF09CD
:1037D00087E00E94CF090E94F30B0E94FB0B8091AF
:1037E000DB02882321F00E94030C0E94FB0B8091D6
:1037F000DA02882321F00E94030C0E94FB0B8091C7
:10380000D902882309F482C02FB7F8948091D1029D
:103810009091D202A091D302B091D4022FBF4091D7
:10382000D5025091D6026091D7027091D802841BC4
:10383000950BA60BB70B8C329140A105B10508F092
:1038400065C00E94F8091A8219821C821B821E829E
:103850001D826091D3037091D4036115710541F00D
:103860004091D7035091D803CE0101960E94CF0D0D
:10387000DD800D2D1E8184E00E94CF098D2D0E94D8
:10388000CF09E016F106F4F48D819E81E816F90661
:10389000B8F489819A81009799F08E0D9F1DFC01E3
:1038A00080810E94CF09FFEFEF1AFF0AEACF8092D2
:1038B000CD029092CE02A092CF02B092D0027ACFE7
:1038C00080E0EFCFCE0101960E949F0D82E00E9422
:1038D000CF0989E00E94CF090E94F30B0E94FB0BE5
:1038E0006AE070E080E090E00E94330480E090E0C5
:1038F000892B11F40C94AD130E944001882311F41C
:103900000C94AD130E9400000C94AD1350E040E005
:1039100063E771E083ED93E00E94CF0D2FB7F89439
:103920008091D1029091D202A091D302B091D402A1
:103930002FBF8093D5029093D602A093D702B09365
:10394000D802CECF83ED93E00E949F0D87E591E0F2
:103950009093DA038093D90389ED93E00E941405D4
:1039600080911B0490911C040E946820809118048F
:103970009091190497FD03C060E00C948F020895A4
:103980000E94021D08F481E00895E89409C097FBA5
:103990003EF490958095709561957F4F8F4F9F4F26
:1039A0009923A9F0F92F96E9BB279395F69587956A
:1039B00077956795B795F111F8CFFAF4BB0F11F42D
:1039C00060FF1BC06F5F7F4F8F4F9F4F16C08823D4
:1039D00011F096E911C0772321F09EE8872F762F0A
:1039E00005C0662371F096E8862F70E060E02AF04B
:1039F0009A95660F771F881FDAF7880F9695879537
:103A000097F90895990F0008550FAA0BE0E8FEEF0B
:103A100016161706E807F907C0F012161306E40792
:103A2000F50798F0621B730B840B950B39F40A268B
:103A300061F0232B242B252B21F408950A2609F469
:103A4000A140A6958FEF811D811D08950E94391D0B
:103A50000C94AA1D0E949C1D38F00E94A31D20F00A
:103A6000952311F00C94931D0C94991D11240C9422
:103A7000DE1D0E94BB1D70F3959FC1F3950F50E0B2
:103A8000551F629FF001729FBB27F00DB11D639F10
:103A9000AA27F00DB11DAA1F649F6627B00DA11DB6
:103AA000661F829F2227B00DA11D621F739FB00D5C
:103AB000A11D621F839FA00D611D221F749F3327CC
:103AC000A00D611D231F849F600D211D822F762F65
:103AD0006A2F11249F5750409AF0F1F088234AF042
:103AE000EE0FFF1FBB1F661F771F881F91505040AE
:103AF000A9F79E3F510580F00C94931D0C94DE1D98
:103B00005F3FE4F3983ED4F3869577956795B79534
:103B1000F795E7959F5FC1F7FE2B880F911D96954E
:103B2000879597F9089597F99F6780E870E060E0BE
:103B300008959FEF80EC089500240A941616170646
:103B400018060906089500240A941216130614068E
:103B500005060895092E0394000C11F4882352F0F1
:103B6000BB0F40F4BF2B11F460FF04C06F5F7F4FA9
:103B70008F4F9F4F089557FD9058440F551F59F090
:103B80005F3F71F04795880F97FB991F61F09F3F4A
:103B900079F087950895121613061406551FF2CF73
:103BA0004695F1DF08C0161617061806991FF1CFC3
:103BB00086957105610508940895E894BB276627EA
:103BC0007727CB0197F90895052E97FB1EF40094F3
:103BD0000E94FB1D57FD07D00E94451E07FC03D025
:103BE0004EF40C94FB1D50954095309521953F4F18
:103BF0004F4F5F4F089590958095709561957F4FD9
:103C00008F4F9F4F08950E94671EA59F900DB49FF0
:103C1000900DA49F800D911D112408952F923F9225
:103C20004F925F926F927F928F929F92AF92BF92CC
:103C3000CF92DF92EF92FF920F931F93CF93DF9378
:103C4000CDB7DEB7CA1BDB0B0FB6F894DEBF0FBED5
:103C5000CDBF09942A88398848885F846E847D8422
:103C60008C849B84AA84B984C884DF80EE80FD8024
:103C70000C811B81AA81B981CE0FD11D0FB6F8949A
:103C8000DEBF0FBECDBFED010895A1E21A2EAA1B23
:103C9000BB1BFD010DC0AA1FBB1FEE1FFF1FA217FC
:103CA000B307E407F50720F0A21BB30BE40BF50BF9
:103CB000661F771F881F991F1A9469F76095709582
:103CC000809590959B01AC01BD01CF010895A29F05
:103CD000B001B39FC001A39F700D811D1124911DE0
:103CE000B29F700D811D1124911D08955058BB275E
:103CF000AA270E948E1E0C94AA1D0E949C1D38F0BB
:103D00000E94A31D20F039F49F3F19F426F40C946F
:103D1000991D0EF4E095E7FB0C94931DE92F0E948A
:103D2000BB1D58F3BA17620773078407950720F085
:103D300079F4A6F50C94DD1D0EF4E0950B2EBA2F48
:103D4000A02D0B01B90190010C01CA01A0011124A1
:103D5000FF27591B99F0593F50F4503E68F11A164D
:103D6000F040A22F232F342F4427585FF3CF4695DE
:103D700037952795A795F0405395C9F77EF41F1600
:103D8000BA0B620B730B840BBAF09150A1F0FF0FCA
:103D9000BB1F661F771F881FC2F70EC0BA0F621FB6
:103DA000731F841F48F4879577956795B795F795A6
:103DB0009E3F08F0B0CF9395880F08F09927EE0F3B
:103DC0009795879508950E94F71E0C94AA1D0E944E
:103DD000A31D58F00E949C1D40F029F45F3F29F07C
:103DE0000C94931D51110C94DE1D0C94991D0E948E
:103DF000BB1D68F39923B1F3552391F3951B550B24
:103E0000BB27AA2762177307840738F09F5F5F4FAD
:103E1000220F331F441FAA1FA9F335D00E2E3AF0EC
:103E2000E0E832D091505040E695001CCAF72BD004
:103E3000FE2F29D0660F771F881FBB1F2617370755
:103E40004807AB07B0E809F0BB0B802DBF01FF2787
:103E500093585F4F3AF09E3F510578F00C94931DB4
:103E60000C94DE1D5F3FE4F3983ED4F3869577957E
:103E70006795B795F7959F5FC9F7880F911D969540
:103E8000879597F90895E1E0660F771F881FBB1F9C
:103E9000621773078407BA0720F0621B730B840B49
:103EA000BA0BEE1F88F7E09508950E945C1F689496
:103EB000B1110C94DE1D08950E94C31D88F09F5718
:103EC00098F0B92F9927B751B0F0E1F0660F771F3E
:103ED000881F991F1AF0BA95C9F714C0B13091F034
:103EE0000E94DD1DB1E008950C94DD1D672F782F31
:103EF0008827B85F39F0B93FCCF3869577956795F9
:103F0000B395D9F73EF490958095709561957F4F64
:103F10008F4F9F4F0895991B79E004C0991F961702
:103F200008F0961B881F7A95C9F780950895AA1BFB
:103F3000BB1B51E107C0AA1FBB1FA617B70710F094
:103F4000A61BB70B881F991F5A95A9F780959095C6
:103F5000BC01CD01089597FB072E16F4009407D0FD
:103F600077FD09D00E94971F07FC05D03EF490957D
:103F700081959F4F0895709561957F4F0895EE0F3D
:103F8000FF1F0590F491E02D09940E94671EB7FF72
:103F90000895821B930B08950F931F93CF93DF9384
:103FA0008230910510F482E090E0E0914504F091B8
:103FB000460430E020E0B0E0A0E0309799F421150D
:103FC000310509F44AC0281B390B24303105D8F5D6
:103FD0008A819B816115710589F1FB01938382833D
:103FE000FE0111C040815181028113814817590798
:103FF000E0F04817590799F4109761F012960C9366
:10400000129713961C933296CF01DF91CF911F9197
:104010000F9108950093450410934604F4CF2115A1
:10402000310551F04217530738F0A901DB019A011D
:10403000BD01DF01F801C1CFEF01F9CF9093460434
:1040400080934504CDCFFE01E20FF31F819391933E
:104050002250310939832883D7CF209143043091EE
:104060004404232B41F420910F013091100130932F
:1040700044042093430420910D0130910E01211539
:10408000310541F42DB73EB7409111015091120115
:10409000241B350BE0914304F0914404E217F3072D
:1040A000A0F42E1B3F0B2817390778F0AC014E5FA8
:1040B0005F4F2417350748F04E0F5F1F509344049D
:1040C00040934304819391939FCFF0E0E0E09CCF35
:1040D000CF93DF930097E9F0FC01329713821282AD
:1040E000A0914504B0914604ED0130E020E0109726
:1040F000A1F420813181820F931F209143043091DC
:1041000044042817390709F061C0F0934404E09390
:104110004304DF91CF910895EA01CE17DF07E8F558
:104120004A815B819E0141155105B1F7E901FB838D
:10413000EA8349915991C40FD51FEC17FD0761F42B
:10414000808191810296840F951FE901998388836C
:10415000828193819B838A83F0E0E0E012968D91C7
:104160009C9113970097B9F52D913C911197CD0132
:104170000296820F931F2091430430914404281724
:10418000390739F6309751F51092460410924504DC
:10419000B0934404A0934304BCCFD383C283408133
:1041A0005181840F951FC817D90761F44E5F5F4F87
:1041B00088819981480F591F518340838A819B814F
:1041C000938382832115310509F0B0CFF093460423
:1041D000E09345049ECFFD01DC01C0CF1382128223
:1041E000D7CFB0E0A0E0E7EFF0E20C94101E8C0116
:1041F000009751F4CB010E94CC1F8C01C801CDB7B0
:10420000DEB7E0E10C942C1EFC01E60FF71F9C01C9
:1042100022503109E217F30708F49DC0D901CD916E
:10422000DC911197C617D70798F0C530D10530F348
:10423000CE0104978617970708F3C61BD70B229762
:10424000C193D1936D937C93CF010E946820D6CF08
:104250005B01AC1ABD0A4C018C0E9D1EA091450459
:10426000B0914604512C412CF12CE12C109731F5E2
:1042700080914304909144048815990509F05CC02D
:104280004616570608F058C080910D0190910E0116
:10429000009741F48DB79EB74091110150911201E2
:1042A000841B950BE817F90708F055C0F0934404F8
:1042B000E0934304F90171836083A0CF8D919C91B9
:1042C000119712966C90129713967C901397A815DD
:1042D000B90559F56C0142E0C40ED11CCA14DB04C7
:1042E00020F1AC014A195B09DA011296159780F0AA
:1042F0006282738251834083D9016D937C93E11470
:10430000F10471F0D7011396FC93EE93129776CFD8
:1043100022968C0F9D1FF90191838083F301EFCFCB
:10432000F0934604E093450469CF4816590608F413
:104330002C017D01D3019ACFCB010E94CC1F7C01BF
:10434000009749F0AE01B8010E94AE21C8010E9459
:104350006820870153CF10E000E050CFFB01DC0163
:1043600002C001900D9241505040D8F70895DC01F1
:1043700001C06D9341505040E0F70895FB01DC010E
:1043800001900D920020E1F7089510E0C3E6D0E01F
:1043900004C0FE010E94BF1F2196C436D107C9F791
:0443A000F894FFCFBF
:1043A400FF08000C000B000A000C000D0000004781
:1043B40004800081C3A5A991A5C381000040001415
:1043C4000054000000000000000000000000000095
:1043D4000000007601D6000301C301340112012656
:1043E40001000000007B064E0692077E0447063457
:1043F400062506000000007F04D60092077E04DB39
:1044040004F304660400000000ED0BD6009207914B
:04441400070D0A0086
:00000001FF
