:100000000C9464000C948C000C948C000C94870A63
:100010000C94870A0C94870A0C948C000C94890920
:100020000C948C000C948C000C948C000C941E0C82
:100030000C948C000C948C000C948C000C948C0010
:100040000C943D0A0C948C000C940B0A0C94E5095A
:100050000C948C000C948C000C948C000C948C00F0
:100060000C94FF0A0C948C00000000002400270070
:100070002A0002000000080002010000030407003B
:1000800000000000000000000000002300260029FE
:100090000000000000250028002B000404040404D4
:1000A0000404040202020202020303030303030125
:1000B00002040810204080010204081020010204FC
:1000C000081020001F0DCD1611241FBECFEFD8E061
:1000D000DEBFCDBF11E0A0E0B1E0ECECF7E302C081
:1000E00005900D92A436B107D9F724E0A4E6B1E05B
:1000F00001C01D92AF30B207E1F710E0C3E6D0E0D7
:1001000004C02197FE010E94C619C236D107C9F763
:100110000E94450E0C94D91B0C940000089508957C
:10012000AF92BF92CF92DF92EF92FF920F931F9305
:10013000CF93DF936C017B018B01040F151FEB0143
:100140005E01AE18BF08C017D10759F06991D601FA
:10015000ED91FC910190F081E02DC6010995892B6C
:1001600079F7C501DF91CF911F910F91FF90EF902B
:10017000DF90CF90BF90AF900895FC01538D448DD8
:10018000252F30E0842F90E0821B930B541710F042
:10019000CF96089501970895FC01918D828D98174F
:1001A00061F0A28DAE0FBF2FB11D5D968C91928D27
:1001B0009F5F9F73928F90E008958FEF9FEF089558
:1001C000FC01918D828D981731F0828DE80FF11D21
:1001D000858D90E008958FEF9FEF0895FC01918D3C
:1001E000228D892F90E0805C9F4F821B91098F7335
:1001F0009927089581EF92E00E94EE0021E0892B7B
:1002000009F420E0822F089580E090E0892B29F006
:100210000E94FA0081110C9400000895FC01A48D45
:10022000A80FB92FB11DA35ABF4F2C91848D90E018
:1002300001968F739927848FA689B7892C93A089FB
:10024000B1898C91837080648C93938D848D981385
:1002500006C00288F389E02D80818F7D8083089518
:10026000EF92FF920F931F93CF93DF93EC0181E006
:10027000888F9B8D8C8D98131AC0E889F9898081AD
:1002800085FF15C09FB7F894EE89FF896083E889E0
:10029000F98980818370806480839FBF81E090E0D2
:1002A000DF91CF911F910F91FF90EF900895F62E5F
:1002B0000B8D10E00F5F1F4F0F731127E02E8C8DF9
:1002C0008E110CC00FB607FCFACFE889F98980813E
:1002D00085FFF5CFCE010E940E01F1CFEB8DEC0F23
:1002E000FD2FF11DE35AFF4FF0829FB7F8940B8F5B
:1002F000EA89FB8980818062CFCFCF93DF93EC01C5
:10030000888D8823B9F0AA89BB89E889F9898C91FD
:1003100085FD03C0808186FD0DC00FB607FCF7CFB9
:100320008C9185FFF2CF808185FFEDCFCE010E94B9
:100330000E01E9CFDF91CF910895833081F028F449
:10034000813099F08230A9F008958730A9F0883083
:10035000C9F08430B1F4809180008F7D03C080911A
:1003600080008F7780938000089584B58F7784BD57
:10037000089584B58F7DFBCF8091B0008F778093F7
:10038000B00008958091B0008F7DF9CF1F93CF9377
:10039000DF93282F30E0F901ED58FF4F8491F901E8
:1003A000E155FF4FD491F901E556FF4FC491CC239D
:1003B000A9F0162F81110E949D01EC2FF0E0EE0FA5
:1003C000FF1FEF56FF4FA591B4918FB7F894EC91B2
:1003D000111108C0D095DE23DC938FBFDF91CF9140
:1003E0001F910895DE2BF8CF9091000189130BC067
:1003F000E2E7F0E0E4919FEF90930001E13049F0F3
:1004000028F0E23061F060E00C94C60110926E00BA
:10041000FACF90916F009D7F90936F00F4CF9091F1
:1004200070009D7F9093700091E09093B000909148
:10043000B100987F94609093B1001092B300E3CF25
:10044000CF93DF9390E0FC01E155FF4F2491855657
:100450009F4FFC0184918823D1F090E0880F991F71
:10046000FC01E859FF4FA591B491FC01EF56FF4FF5
:10047000C591D49161110EC09FB7F8948C91E22F71
:10048000E0958E238C932881E223E8839FBFDF9140
:10049000CF9108958FB7F894EC91E22BEC938FBF36
:1004A000F6CF1F93CF93DF93182FEB0161E00E94EB
:1004B0002002209739F460E0812FDF91CF911F91C6
:1004C0000C94C601CF3FD10511F461E0F5CFE12FC7
:1004D000F0E0ED58FF4FE491E33031F140F4E130CA
:1004E000B1F0E230E1F0C038D1057CF7E4CFE7307D
:1004F00029F1E83059F1E430B1F780918000806251
:1005000080938000D0938B00C0938A0004C084B590
:10051000806884BDC7BDDF91CF911F91089584B5D8
:10052000806284BDC8BDF7CF8091800080688093D1
:100530008000D0938900C0938800EDCF8091B000F7
:1005400080688093B000C093B300E5CF8091B00085
:1005500080628093B000C093B400DDCF3FB7F894C1
:1005600080915C0290915D02A0915E02B0915F0269
:1005700026B5A89B05C02F3F19F00196A11DB11DFE
:100580003FBFBA2FA92F982F8827BC01CD01620F3A
:10059000711D811D911D42E0660F771F881F991FF5
:1005A0004A95D1F708958F929F92AF92BF92CF92C2
:1005B000DF92EF92FF924B015C010E94AE026B0151
:1005C0007C010E94AE026C197D098E099F09683E6C
:1005D000734081059105A8F321E0821A9108A108D2
:1005E000B10888EEC80E83E0D81EE11CF11C81140E
:1005F0009104A104B10429F7FF90EF90DF90CF9010
:10060000BF90AF909F908F9008952091EF0230910E
:10061000F0022817390771F49091ED028091EE02F3
:10062000981741F0E091ED02F0E0E55EFD4F80812A
:1006300090E008958FEF9FEF08950895EF92FF9255
:100640000F931F93CF93DF93DC015C96ED90FC90AA
:100650005D97E114F10479F481E090E013969C93A6
:100660008E93129790E080E0DF91CF911F910F91D0
:10067000FF90EF9008955196ED91FC91529750960E
:100680008C915097982F90950FB75E962C915E970E
:10069000122F127021FD6095F8942081112319F119
:1006A000282B2083E7012197F1F728E0462F50E01F
:1006B000308160FF1AC0382B3083E7012197F1F7B2
:1006C000BA0175956795215089F7112381F08081D2
:1006D000892380830FBF5C968D919C910197F1F7E0
:1006E00081E090E0C1CF2923DCCF3923E5CF908191
:1006F000892BEFCF2091EF023091F00228173907B4
:1007000071F48091EE022091ED0290E0805C9F4FA9
:10071000821B910960E470E00E94B219089590E094
:1007200080E008952091EF023091F00228173907F8
:10073000B9F49091ED028091EE02981789F0E09162
:10074000ED02F0E0E55EFD4F80812091ED0230E0AA
:100750002F5F3F4F2F7333272093ED0290E00895D2
:100760008FEF9FEF0895E091EF02F091F002E8170C
:10077000F90769F4A389B4899C91858980958923B7
:100780008C931092F0021092EF0281E0089580E0C5
:1007900008951092E0031092DF031092DE0310928E
:1007A000DD031092DC031092DB038DE991E090935E
:1007B000E2038093E1039091D103963108F046C0A3
:1007C0002DEB30E03093DC032093DB032BE931E0A9
:1007D0003093DE032093DD032CE231E03093E0031D
:1007E0002093DF032091680084E0983048F031E0E6
:1007F0009E3008F430E081E001C0880F3A95EAF7B6
:10080000822B809368002DE630E0983050F02BE684
:1008100030E09E3030F02CE630E0963110F030E0E1
:1008200020E03093D9032093D803292F30E098306B
:10083000C0F581E001C0880F9A95EAF78093DA034A
:100840008091E1039091E2030197F1F78091DF033A
:100850009091E003892B21F18091EF029091F002B9
:1008600023E0853C9207E1F0009711F00E94B3036A
:100870008091E3038E7F8093E3031092EE02109247
:10088000ED0285EC93E09093F0028093EF02E0910B
:10089000D803F091D90380819091DA03892B80836A
:1008A00008959E3040F42850310981E001C0880F3E
:1008B0002A95EAF7C3CF2E503109F7CF2091D10105
:1008C000260F3327331F21323105ECF42091F50137
:1008D000FC0190E080E0243069F082E00895A0916E
:1008E000D1012191AC014F545E4FA40FB52FB11D22
:1008F0002C930196861798F38091D101680F60932D
:10090000D10180E0089581E008951092F50181E021
:100910008093F7011092F60161E082E10E94C60126
:1009200061E083E10E94C601E9EBF0E080818E7F07
:10093000808380818D7F808388E48093B80085E404
:100940008093BC000895CF93DF9391E09093B00122
:100950008823B9F0C091B800D091BA008091BC0052
:100960008A7B8093BC0060E082E10E94C60160E067
:1009700083E10E94C6010E948504D093BA00C0930F
:10098000B800DF91CF910895E091670280916602EF
:10099000E81730F4F0E0E557FE4F808190E00895CD
:1009A0008FEF9FEF089590916702809166022FEF7D
:1009B0003FEF981748F4E92FF0E0E557FE4F20810C
:1009C00030E09F5F90936702C901089580916602AD
:1009D00090916702891B990B0895CF92DF92EF9255
:1009E000FF920F931F93CF93DF937C01CB018A017A
:1009F00020918A01222389F0EB016B01C40ED51EE0
:100A0000CC15DD0569F06991D701ED91FC9101905C
:100A1000F081E02DC7010995F3CF642F0E945E0499
:100A2000C801DF91CF911F910F91FF90EF90DF9060
:100A3000CF900895CF93DF931F92CDB7DEB7698330
:100A400020918A012223F9F020916402203258F08B
:100A500021E030E0FC013383228390E080E00F90BE
:100A6000DF91CF91089580916502E82FF0E0E6597B
:100A7000FE4F998190838F5F80936502809364021B
:100A800081E090E0ECCF61E0CE0101960E945E042F
:100A9000F7CFCF92DF92EF92FF920F931F93CF93F6
:100AA000DF93FC01C48121E020938A01C093690196
:100AB00010926502109264028385682B8EE893E0A1
:100AC0000E941A05D0916402D13208F092C00E94AF
:100AD000AE026B017C018091F501811165C082E05D
:100AE0008093F50181E08093F7018FEF8093F4010B
:100AF00010921902D0931802AAE6B1E0E8EFF1E0F3
:100B000080E0D81385C010921A0280911A02CC0F8F
:100B1000C82BC0931A028091F601813009F07CC085
:100B20001092F6010E94AE026B017C0180911A02C4
:100B30008093BB008091AC019091AD01A091AE017A
:100B4000B091AF01892B8A2B8B2B99F00E94AE02BA
:100B50000091AC011091AD012091AE013091AF0137
:100B60006C197D098E099F09061717072807390791
:100B7000E0F18091BC0083FDD9CF85EC8093BC006F
:100B80000E94AE026B017C018091F501823009F474
:100B900045C08091F4018F3F61F18091F401803272
:100BA00041F18091F40125C08091AC019091AD019B
:100BB000A091AE01B091AF01892B8A2B8B2B09F448
:100BC0008ACF0E94AE020091AC011091AD0120913C
:100BD000AE013091AF016C197D098E099F0906178E
:100BE00017072807390708F076CF8091AB010E94DC
:100BF000A304109265021092640210928A01DF91A0
:100C0000CF911F910F91FF90EF90DF90CF900895BB
:100C10009D9191938F5F75CF85EEB0CF8091AC01A0
:100C20009091AD01A091AE01B091AF01892B8A2BBB
:100C30008B2B09F4A9CF0E94AE020091AC01109158
:100C4000AD012091AE013091AF016C197D098E0983
:100C50009F09061717072807390708F095CFC5CF52
:100C6000089590E080E00895FC01EE0FFF1FEF5221
:100C7000FD4F20813181232B39F421E030E0318395
:100C8000208361E00C94200208958F929F92AF928E
:100C9000BF92CF92DF92EF92FF920F931F93CF9369
:100CA000DF93CDB7DEB76B970FB6F894DEBF0FBEFC
:100CB000CDBF8C01F894CE0101967C0188E1D7016B
:100CC0001D928A95E9F7C8010E943406809194022A
:100CD000898F809192028A8F809196028B8FFE017C
:100CE0007996C7015E01BCE1AB0EB11CA701A191D1
:100CF0008A2E912C27E030E06A01C20ED31EB40187
:100D0000022E02C0759567950A94E2F76170D601CC
:100D10006C932150310980F7485F5F4FEA15FB055E
:100D200031F79801225031092630310508F0EDC025
:100D30000330110509F052C05B9825E50F920F9022
:100D40000F920F900F920F902150C1F7E8E1EE0E35
:100D5000F11C27E030E0FC01E20FF31F408141303D
:100D600009F07BC00330110509F04DC05B9A4AE1E0
:100D70000F920F900F920F900F920F904150C1F76A
:100D80000330110509F054C05B9849E10F920F90B0
:100D90000F920F900F920F904150C1F721503109DF
:100DA000D0F60896E816F906A1F60330110509F009
:100DB00097C05B9A78946B960FB6F894DEBF0FBE1F
:100DC000CDBFDF91CF911F910F91FF90EF90DF90FA
:100DD000CF90BF90AF909F908F90089504301105F1
:100DE00011F45C98AACF0530110511F45D98A5CFD8
:100DF0000630110511F45E98A0CF0730110509F0F7
:100E00009CCF5F989ACF0430110511F45C9AAFCF54
:100E10000530110511F45D9AAACF0630110511F4C1
:100E20005E9AA5CF0730110509F0A1CF5F9A9FCF39
:100E30000430110511F45C98A8CF0530110511F4A8
:100E40005D98A3CF0630110511F45E989ECF073050
:100E5000110509F09ACF5F9898CF03301105C1F4BE
:100E60005B9A4FE00F920F900F920F900F920F909E
:100E70004150C1F703301105F9F45B984EE00F9231
:100E80000F900F920F900F920F904150C1F786CFA5
:100E90000430110511F45C9AE4CF0530110511F40A
:100EA0005D9ADFCF0630110511F45E9ADACF073074
:100EB0001105B9F65F9AD5CF0430110511F45C988D
:100EC000DDCF0530110511F45D98D8CF063011053E
:100ED00011F45E98D3CF0730110581F65F98CECF1D
:100EE0000430110511F45C9A65CF0530110511F439
:100EF0005D9A60CF0630110511F45E9A5BCF073022
:100F0000110509F057CF5F9A55CF98012850310944
:100F10002630310508F04ECF0830110509F03FC0EA
:100F2000289825E50F920F900F920F900F920F9037
:100F30002150C1F728E1E20EF11C27E030E0FC016E
:100F4000E20FF31F4081413009F06BC008301105FA
:100F500009F03BC0289A4AE10F920F900F920F9030
:100F60000F920F904150C1F70830110509F043C0AE
:100F7000289849E10F920F900F920F900F920F90C7
:100F80004150C1F721503109D0F60896E816F9060C
:100F9000A1F60830110509F08BC0289A0BCF093053
:100FA000110511F42998BDCF0A30110511F42A98C2
:100FB000B8CF0B30110511F42B98B3CF0C301105BD
:100FC00011F42C98AECF2D98ACCF0930110511F447
:100FD000299AC1CF0A30110511F42A9ABCCF0B30DF
:100FE000110511F42B9AB7CF0C30110511F42C9A7E
:100FF000B2CF2D9AB0CF0930110511F42998B9CF8D
:101000000A30110511F42A98B4CF0B30110511F4F0
:101010002B98AFCF0C30110511F42C98AACF2D9836
:10102000A8CF08301105C1F4289A4FE00F920F9015
:101030000F920F900F920F904150C1F70830110599
:1010400009F528984EE00F920F900F920F900F9293
:101050000F904150C1F796CF0930110511F4299A2C
:10106000E4CF0A30110511F42A9ADFCF0B301105B5
:1010700011F42B9ADACF0C30110511F42C9AD5CF3C
:101080002D9AD3CF0930110511F42998DBCF0A30FE
:10109000110511F42A98D6CF0B30110511F42B98B5
:1010A000D1CF0C30110511F42C98CCCF2D98CACF8C
:1010B0000930110511F4299A7DCE0A30110511F479
:1010C0002A9A78CE0B30110511F42B9A73CE0C307E
:1010D000110511F42C9A6ECE2D9A6CCE682F81EFEB
:1010E00092E00C9430010F931F93CF93DF938B0109
:1010F000D82FC92F82E00E946E08C801AD2FBC2FE7
:101100008093640190936501A0936601B093670199
:101110000E946E08812F0E946E088D2F0E946E081B
:101120008C2FDF91CF911F910F910C946E088FEF50
:101130000E946E0885E50C946E080F931F93CF9361
:101140008C01C62F0E9449056C2F6460C8010E9463
:1011500049056C2F6B7FC8010E94490583EC90E024
:101160000197F1F7CF911F910F9108950F931F935E
:10117000CF93DF938C01D62FC42F607F642B0E9406
:101180009D0880E1D89FB00111246C2BC801DF912C
:10119000CF911F910F910C949D0840E061E084EE87
:1011A00093E00E94B6088BE39FE10197F1F7089561
:1011B00041E00E94B60881E090E0089542E050E0EE
:1011C00061E671E081EF92E00C9490008FEF0E9455
:1011D0006E0885E50E946E080C94DE08FC01808193
:1011E0009181009711F00C94831A08950F931F9327
:1011F000CF93DF93EC0188819981009759F02A8180
:101200003B812617370730F081E0DF91CF911F91A6
:101210000F9108958B016F5F7F4F0E940C1B009709
:1012200059F0998388831B830A832C813D81232B6A
:1012300059F7FC011082E8CF80E0E7CFEF92FF92F0
:101240000F931F93CF93DF93EC017B018A01BA01C7
:101250000E94F60828813981811114C021153105B9
:1012600019F0C9010E94831A198218821D821C82FA
:101270001B821A82CE01DF91CF911F910F91FF90B7
:10128000EF9008951D830C83B701C9010E94D21B02
:10129000F1CF50E040E063E671E08FEB93E00C9417
:1012A0001E0985ED8093BC008091AC019091AD0149
:1012B000A091AE01B091AF010796A11DB11D23E031
:1012C000B695A795979587952A95D1F72091BC005B
:1012D00024FD03C01092F50108954091AC01509196
:1012E000AD016091AE017091AF01452B462B472BAC
:1012F00069F30097A105B10541F025E32A95F1F7BF
:1013000000000197A109B109E1CF8091AB010C94D4
:10131000A3041F920F920FB60F9211242F933F93A5
:101320004F935F936F937F938F939F93AF93BF93ED
:10133000EF93FF9380916F0290917002A0917102E0
:10134000B0917202892B8A2B8B2BD1F190916A027A
:10135000E0916B02F0916C028081892780838091FB
:101360006F0290917002A0917102B09172021816F2
:1013700019061A061B069CF480916F029091700268
:10138000A0917102B09172020197A109B1098093F5
:101390006F0290937002A0937102B0937202FF915A
:1013A000EF91BF91AF919F918F917F916F915F91DD
:1013B0004F913F912F910F900FBE0F901F90189556
:1013C000809100010E94F401EACF1F920F920FB6A4
:1013D0000F9211242F933F934F935F936F937F93BB
:1013E0008F939F93AF93BF93EF93FF9381EF92E01F
:1013F0000E940E01FF91EF91BF91AF919F918F914C
:101400007F916F915F914F913F912F910F900FBE00
:101410000F901F9018951F920F920FB60F921124E4
:101420002F938F939F93EF93FF93E0910103F0919C
:1014300002038081E0910703F091080382FD1BC045
:10144000908180910A038F5F8F7320910B03821725
:1014500041F0E0910A03F0E0EF50FD4F958F80934B
:101460000A03FF91EF919F918F912F910F900FBEE3
:101470000F901F9018958081F4CF1F920F920FB696
:101480000F9211242F933F938F939F93AF93BF930A
:101490008091C7029091C802A091C902B091CA027E
:1014A00030915B0223E0230F2D3758F50196A11DE3
:1014B000B11D20935B028093C7029093C802A09352
:1014C000C902B093CA0280915C0290915D02A09122
:1014D0005E02B0915F020196A11DB11D80935C0276
:1014E00090935D02A0935E02B0935F02BF91AF91B3
:1014F0009F918F913F912F910F900FBE0F901F9052
:10150000189526E8230F0296A11DB11DD2CF1F9278
:101510000F920FB60F9211242F933F934F935F9327
:101520006F937F938F939F93AF93BF93EF93FF93AB
:10153000E091EF02F091F002309749F0A685B7856F
:101540008585968D91FF14C09C918923A1F4FF910C
:10155000EF91BF91AF919F918F917F916F915F912B
:101560004F913F912F910F900FBE0F901F901895A4
:101570009C91892361F7A389B4899C918589809581
:1015800089238C93868997890197F1F7608D718DF6
:10159000A685B785558538E020E0CB010197F1F7A6
:1015A000822F90E095958795282F4C91452309F03F
:1015B0002068315091F7868D81FD20958091EE0253
:1015C00090E001968F7399273091ED02381799F0CA
:1015D000A091EE02B0E0A55EBD4F2C938093EE0289
:1015E000828D938D0197F1F7A389B4898C919589A8
:1015F000892B8C93ACCF868D8160868FF1CF1F9223
:101600000F920FB60F9211242F933F934F935F9336
:101610006F937F938F939F93AF93BF93EF93FF93BA
:101620008091B900887F803609F44AC0F0F588328D
:1016300009F4A7C018F5803109F49BC0B8F48823D9
:1016400009F4F9C0883009F494C0FF91EF91BF917B
:10165000AF919F918F917F916F915F914F913F914A
:101660002F910F900FBE0F901F901895883109F49D
:1016700088C0803251F78093F40114C0803409F49B
:101680009DC040F48033B9F38833F9F68093F401B8
:1016900085ECB0C0803509F485C0883509F496C062
:1016A000883499F60E945109D0CF883909F48CC04A
:1016B00038F5883729F050F4883611F0803729F64C
:1016C00083E08093F5011092F30157C0883809F444
:1016D0007BC0803919F0803809F0B7CF8091F301D1
:1016E000803208F071C0E091F30181E08E0F8093A9
:1016F000F3018091BB00F0E0ED52FE4F80833DC0CE
:10170000803B39F0E0F4803A09F479C0883A09F076
:101710009CCF84E08093F5011092D2011092D10108
:10172000E0916202F091630209958091D1018111EB
:101730000FC081E08093D1011092B10109C0803CBB
:1017400009F4A6CF883C09F4A3CF883B09F07DCFEC
:10175000E091D20181E08E0F8093D201F0E0EF544E
:10176000FE4F80818093BB009091D2018091D10186
:1017700029C080911A028093BB0085EC8093BC0045
:1017800064CF9091190280911802981758F5E09152
:10179000190281E08E0F80931902F0E0E850FE4FAD
:1017A0008081E9CFE091190281E08E0F80931902C8
:1017B0008091BB00F0E0E850FE4F808390911902C9
:1017C000809118029817C8F285E8D8CFE0911902E5
:1017D00081E08E0F809319028091BB00F0E0E85009
:1017E000FE4F80838091F70181115CCF81E080936F
:1017F000F60184EA8093BC001092F50126CF85ECB7
:101800008093BC001092F5018091F301803230F496
:10181000E091F301F0E0ED52FE4F10826091F30190
:1018200070E0E0916002F091610283ED91E0099532
:101830001092F3010ACF1092F40134CF1F920F924D
:101840000FB60F9211242F933F934F935F936F9393
:101850007F938F939F93AF93BF93CF93DF93EF9338
:10186000FF9380916801C091BE03D0E087FF24C040
:101870001092850010928400809168018F5F8093A0
:10188000680180916801082E000C990B8C179D0748
:1018900024F4809168018C30C4F18091840090918F
:1018A0008500049680349C4908F47AC080918400B5
:1018B00090918500049676C080916801082E000CF6
:1018C000990B8C179D07C4F6E09168018E2FEE0FDF
:1018D000990BFC01EE0FFF1FE80FF91FE656FC4FB6
:1018E000808186FFC9CFE09168018E2FEE0F990BA2
:1018F000FC01EE0FFF1FE80FF91FE656FC4F808139
:1019000060E08F730E94C601B7CF209184003091B0
:101910008500E09168018E2FEE0F990BFC01EE0F10
:10192000FF1FE80FF91FE656FC4F81819281820F5D
:10193000931F9093890080938800E09168018E2F17
:10194000EE0F990BFC01EE0FFF1FE80FF91FE65693
:10195000FC4F808186FF11C0E09168018E2FEE0F51
:10196000990BFC01EE0FFF1FE80FF91FE656FC4F25
:10197000808161E08F730E94C601FF91EF91DF913A
:10198000CF91BF91AF919F918F917F916F915F9117
:101990004F913F912F910F900FBE0F901F90189570
:1019A00080E49CE990938900809388008FEF809376
:1019B0006801E3CFCF92DF92EF92FF920F931F93D4
:1019C000E82FF92F05C0015011092109310961F1F2
:1019D000908196239417B9F305C00150110921098C
:1019E000310911F1908196239413F7CFC12CD12C9A
:1019F000E12CF12C0AC08FEFC81AD80AE80AF80ABD
:101A00000C151D052E053F0579F08081862384176E
:101A100091F36C2D7D2D8E2D9F2D1F910F91FF9099
:101A2000EF90DF90CF90089560E070E080E090E06C
:101A30001F910F91FF90EF90DF90CF90089510923B
:101A4000F4021092F30288EE93E0A0E0B0E08093FD
:101A5000F5029093F602A093F702B093F80223E206
:101A600031E03093F2022093F10225EC30E0309324
:101A7000FE022093FD0224EC30E03093000320931B
:101A8000FF0220EC30E0309302032093010321ECAD
:101A900030E0309304032093030322EC30E03093D2
:101AA00006032093050326EC30E0309308032093CF
:101AB000070310920A0310920B0310920C0310926A
:101AC0000D031092910310929003809392039093D0
:101AD0009303A0939403B093950385E391E09093CF
:101AE0008F0380938E03E3EFF3E02FEF48EB5BE08F
:101AF0008091BE038C3008F0C2C091E0980F9093A3
:101B0000BE03808390E0DC01AA0FBB1FA80FB91FA2
:101B1000A656BC4F12965C934E931197339684E071
:101B2000EB30F80729F78091BE038C3008F0A9C08C
:101B300091E0980F9093BE038093F00390E0FC0136
:101B4000EE0FFF1FE80FF91FE656FC4F88EB9BE0F6
:101B5000928381831092E7031092E60389E591E076
:101B60009093E5038093E40387E28093E80380E1A8
:101B70008093ED0382E08093EE031092EF031092C6
:101B8000C8031092C70388EE93E0A0E0B0E0809312
:101B9000C9039093CA03A093CB03B093CC0387E40B
:101BA00091E09093C6038093C5031092DC031092DA
:101BB000DB031092DE031092DD031092E00310921B
:101BC000DF031092E2031092E1036091E3036E7F62
:101BD0006D7F6093E3036695617081E0682783E021
:101BE0000E94C60161E083E00E942002E2EBF0E087
:101BF000E491E093D503EEE9F0E0E491F0E0EE0F3C
:101C0000FF1FEF56FF4F859194919093D7038093D8
:101C1000D60360E082E00E9420028091E30381FD10
:101C200004C061E082E00E94C60182E08093D1039B
:101C3000E1EBF0E0E491E093D203EDE9F0E0E49130
:101C4000F0E0EE0FFF1FE957FF4F859194919093BD
:101C5000D4038093D3031092C0031092BF03109259
:101C6000C2031092C1031092C4031092C30350E048
:101C700040E063E671E08FEB93E00C941E09208353
:101C80004DCF8FEF8093F00365CFCF93DF93CDB728
:101C9000DEB7AE970FB6F894DEBF0FBECDBF789417
:101CA00084B5826084BD84B5816084BD85B5826061
:101CB00085BD85B5816085BD80916E008160809312
:101CC0006E0010928100809181008260809381007B
:101CD000809181008160809381008091800081608B
:101CE000809380008091B10084608093B1008091E6
:101CF000B00081608093B00080917A00846080930E
:101D00007A0080917A00826080937A0080917A00D4
:101D1000816080937A0080917A00806880937A0055
:101D20001092C100E0910103F091020382E08083F0
:101D3000E091FD02F091FE021082E091FF02F0912D
:101D4000000380E1808310920903E0910503F09184
:101D5000060386E08083E0910303F0910403808111
:101D600080618083E0910303F091040380818860A7
:101D70008083E0910303F091040380818068808375
:101D8000E0910303F091040380818F7D80830E94A2
:101D9000C90314E061E0812F0E94200260E0812FDE
:101DA0000E94C6011F5F1E30A9F7109267021092B1
:101DB000660210926502109264020E9485048EE809
:101DC00090E090936302809362028FE890E090939A
:101DD0006102809360021092E9038091EE038230E9
:101DE00018F098E09093E9038093EC0362E370E0CD
:101DF00080E090E00E94D3026091EF0384EE93E0D4
:101E00000E94490568EE73E080E090E00E94D302F2
:101E100060E384EE93E00E949D080BE416E4C801A1
:101E20000197F1F760E384EE93E00E949D08C801FA
:101E30000197F1F760E384EE93E00E949D0883E54B
:101E400092E00197F1F760E284EE93E00E949D0832
:101E50006091E903606240E084EE93E00E94B6087E
:101E600084E08093EA0340E06CE084EE93E00E941B
:101E7000B6080E94CD0882E08093EB0340E066E064
:101E800084EE93E00E94B60840E062E084EE93E0C6
:101E90000E94B6088BE39FE10197F1F788E08093F9
:101EA000EF0360E084EE93E00E9449050E94CD08B4
:101EB00068EC70E080E090E00E94D302CE01429690
:101EC00098A78FA381EF92E00E94EE00892B09F47E
:101ED00057C581EF92E00E94EE001816190694F79C
:101EE00081EF92E00E94CC009091C202853589F585
:101EF00091112FC08091C1028F3F29F481E080931E
:101F0000C0028093C2028091C0028F5F8433C0F50B
:101F10008093C0028091C2028823A1F28091BF0207
:101F20008111D0CF8091C002843060F21092C20241
:101F3000E091900200919102E02EF12C20918F020D
:101F4000223009F4C8C00CF5213039F11092C002DA
:101F5000B9CF8093C1029923B1F2E091C002E2307F
:101F600039F48093BF02F0E0E557FD4F8083CBCF7B
:101F7000E330C8F39091BF0291509093BF02F3CF2A
:101F80001092C0021092C202C5CF233009F465C47A
:101F90002430E1F60E94E608D9CFE73009F040C0CE
:101FA00010919202812F90E03091D002311129C01E
:101FB0002093D002F0920401E09203019093020179
:101FC00080930101F701EE0FFF1FEF52FD4F21E05B
:101FD00030E031832083880F991FFC01EF52FD4FC1
:101FE0003183208361E0802F0E94200260E0812FF6
:101FF0000E94200262E370E080E090E00E94D30241
:10200000A5CF2091030130910401E216F30691F669
:1020100020910101309102012817390759F696CF16
:10202000F0E0E930F10571F40E94C90360E082E05C
:102030000E9420028091CF02811188CF81E080939D
:10204000CF0284CF3A9729F40E94C90361E083E06C
:10205000EFCF8091030190910401E816F90639F061
:102060008091010190910201E816F90691F4109215
:10207000D0021092C3021092C4021092C5021092B4
:10208000C602F701EE0FFF1FEF52FD4F11821082C3
:102090005DCF92E0E916F10469F485EC93E00E94CB
:1020A000B3031092CF020E9449091092D6021092F7
:1020B000D5024CCFE3E0EE16F10419F785EC93E07E
:1020C0000E94B3031092CF020E9449091092D802D5
:1020D0001092D7023BCF8091030190910401E81642
:1020E000F90639F08091010190910201E816F90694
:1020F00051F41092D0021092C3021092C4021092B6
:10210000C5021092C602E150EE3008F043CF0E2E09
:10211000000CFF0BE257FF4E0C94C6199C10CA0F1F
:10212000A510D812AF10CA0FCA0FED13CA0FCA0FED
:10213000CA0FCA0FF9131514C7010E943406609123
:102140009202802F0E94C60125CFC7010E9434064B
:102150006091920270E0802F0E9451021BCFC70154
:102160000E943406809192028093680280919302CB
:102170008093690280916802909169029AA789A769
:102180008091940280936802809195028093690205
:10219000E0916802F0916902FCA7EBA71E161F06EA
:1021A0000CF002C2809100010813CEC0E2E7F0E01B
:1021B000149117FDEFCE61E0802F0E9420021123C1
:1021C000B9F089A59AA52C01712C612C60E072E10F
:1021D0008AE790E0A30192010E94FF1769017A014A
:1021E00091E0C91AD108E108F108123009F099C14B
:1021F000E9A5FAA52F01712C612C60E072E18AE754
:1022000090E0A3019F010E94FF1749015A017A0142
:102210006901F1E0CF1AD108E108F1082FEFC216E9
:10222000D104E104F10409F00CF44EC160E472E45D
:102230008FE090E0A30192010E94FF1769017A01EB
:1022400081E0C81AD108E108F108123009F0F3C0A2
:1022500082E09FEFC916D104E104F10409F00CF407
:102260006CC060E970ED83E090E0A30192010E94F0
:10227000FF1769017A01E1E0CE1AD108E108F108FF
:1022800083E0FFEFCF16D104E104F10409F00CF470
:1022900054C068E478EE81E090E0A30192010E94CE
:1022A000FF1769017A0191E0C91AD108E108F10824
:1022B00084E0EFEFCE16D104E104F104F1F1ECF18A
:1022C00064E274EF80E090E0A30192010E94FF17A6
:1022D00069017A0191E0C91AD108E108F10885E0A5
:1022E000EFEFCE16D104E104F10439F130F162E1EF
:1022F0007AE780E090E0A30192010E94FF17690154
:102300007A0181E0C81AD108E108F10886E09FEF60
:10231000C916D104E104F10481F078F0750164017B
:102320002AE0F594E794D794C7942A95D1F721E051
:10233000C21AD108E108F10887E09091B100987FB6
:10234000892B8093B100C7C08F3F09F023CE009343
:102350000001E2E7F0E014911F3F09F41BCE1130B9
:1023600031F150F0123009F442C017FD13CE61E094
:10237000802F0E94200225CF14BC15BC84B582603A
:1023800084BD85B5816085BDF701E556FF4FE491B9
:10239000F0E0EE0FFF1FEF56FF4F85919491F7018C
:1023A000E155FF4FE491E0936E0210E004CF1092EC
:1023B000800010928100809181008860809381006C
:1023C00080918100816080938100F701E556FF4F85
:1023D000E491F0E0EE0FFF1FEF56FF4F85919491CF
:1023E000F701E155FF4FE491E0936D02E4CE1092C6
:1023F000B0001092B1008091B00082608093B00074
:102400008091B10081608093B100F701E556FF4FE4
:10241000E491F0E0EE0FFF1FEF56FF4F859194918E
:1024200090936C0280936B02F701E155FF4FE491AA
:10243000E0936A02C0CE2FEFC216D104E104F1048A
:1024400009F00CF46CC068E478EE81E090E0A30140
:1024500092010E94FF1769017A0181E0C81AD10830
:10246000E108F10884E011113BCF83E0FFEFCF16C4
:10247000D104E104F10459F154F162E17AE780E01A
:1024800090E0A30192010E94FF1769017A01E1E047
:10249000CE1AD108E108F10884E0FFEFCF16D1048D
:1024A000E104F104A1F098F0750164019AE0F5945B
:1024B000E794D794C7949A95D1F781E0C81AD108C8
:1024C000E108F10885E003C081E0111136CF95B530
:1024D000987F892B85BD29A53AA5220F331FABA56F
:1024E000BCA50E94CC1928EE33E040E050E00E94E9
:1024F00060181130B9F1123009F446C011114ACDFB
:10250000C7BC2093770230937802409379025093AE
:102510007A0280916E00826080936E003BCD82E0F3
:10252000D4CF91E0C114D10421E0E206F10484F09B
:1025300068E478EE81E090E0A30192010E94FF1729
:1025400069017A0181E0C81AD108E108F10893E035
:10255000113009F0C0CF80918100887F892B809352
:102560008100B9CFD0928900C09288002093730275
:1025700030937402409375025093760280916F00FD
:10258000826080936F0006CDC092B30020936F02EB
:1025900030937002409371025093720280917000E8
:1025A000826080937000F6CC802F0E94F401F2CC00
:1025B000C7010E9434069090920294EB991508F49A
:1025C000E9CC80908000E0918100E9A7A09088008C
:1025D000B0908900F0916F00FBA765E070E080E0AB
:1025E00090E00E94D302EBE7F2E090E080E02191DE
:1025F0003191E216F30651F0232B09F0E6C0FC01FD
:10260000EE0FFF1FE558FD4FF182E082FC01EE0F57
:10261000FF1FE80FF91FED50FC4F8081218192814F
:102620008093F0032093F1039093F2038C3008F031
:1026300053C061E0802F0E9420028091F003282F78
:1026400030E0F901EE0FFF1FE20FF31FE656FC4FDB
:10265000902F9F730081007C092B00831092F1035F
:102660001092F2032CE0622F0E94A619829FB00103
:10267000112430E020E0AB01420F531FFA01EE0FAE
:10268000FF1FE40FF51FE656FC4F908196FD16C024
:102690002F5F3F4F2C30310571F781110FC0109221
:1026A000800082E080938100109285001092840067
:1026B000B19A80916F00826080936F00E091F00387
:1026C0008E2F90E0FC01EE0FFF1FE80FF91FE6567A
:1026D000FC4F808180648083F090F0038091F2034E
:1026E00048E5C42E42E0D42EC81AD10887FDD39401
:1026F000CC0CDD1CCC0CDD1C8091F10308E810E053
:10270000081B110987FD1395000F111F000F111FE2
:102710002801012E000C6608770896010D2C000C8C
:10272000440B550B2419350946095709A92DB0E06A
:102730000E941E1824EB30E040E050E00E94FF179A
:10274000BA01A901440D551D661D771D2BE02F15FB
:10275000D0F0401751072CF086014C155D050CF4A4
:102760008A0102501109000F111F2FB7F8948F2D05
:1027700090E0FC01EE0FFF1FE80FF91FE656FC4F3B
:10278000128301832FBF64E670E080E090E00E9436
:10279000D302E091F0038E2F90E0FC01EE0FFF1FBB
:1027A000E80FF91FE656FC4F80818F7B8083809273
:1027B000800089A5809381009BA590936F00BB2426
:1027C000B0928900A0928800E5CB019688309105EF
:1027D00009F00DCF90E080E019CF8FB7F8944091C9
:1027E000C7025091C8026091C9027091CA028FBF9E
:1027F000D1CBC7010E9445066AE070E080E090E01E
:102800000E94D302C7010E9445066AE070E080E0A2
:1028100090E00E94D302C7010E9445066AE070E082
:1028200080E090E00E94D302B5CBE0909202F0905D
:102830009402D09096020091980210E08E2D90E0C4
:102840000E9434068F2D90E00E9434066D2D8E2D4F
:102850000E94C601B8018F2D7FCCEB3029F1EC30FE
:10286000F1F0EA30F1F4ABE8B2E0FE013196BF01DD
:1028700017968C911797819312968FA198A58E1712
:102880009F07B1F7FB0101900020E9F73197AF01F5
:10289000461B570B85EC93E00E94900002C00E94FB
:1028A000CD080E94E60876CB0E94CD0810919202D6
:1028B000009194021AA219A21CA21BA21EA21DA280
:1028C00050E040E063E671E0CE0181960E941E096F
:1028D00088E0EBE0F1E0DE01119601900D928A951F
:1028E000E1F78091EC03811710F41FEF180FE12F2F
:1028F000F0E0EE0FFF1F81E090E08C0F9D1FE80FCE
:10290000F91F6081600F606840E084EE93E00E94F0
:10291000B6080BE812E0BDEACB2EB2E0DB2EF801E0
:1029200083851816DCF4EDA0FEA089831A82FFEFE0
:10293000EF1AFF0AB701CE0181960E94F60888239C
:1029400069F029A13AA18DA19EA1BE016F5F7F4FC1
:10295000820F931F0E94D21BFEA2EDA20E5F1F4F9B
:10296000C016D106E1F64DA15EA169A17AA184EE5F
:1029700093E00E949000CE0181960E94EE0891CFD4
:1029800085EC93E00E947A037C01892B71F185EC40
:1029900093E00E947A031816190694F785EC93E0E9
:1029A0000E94920389831A820091C3031091C40389
:1029B0000F5F1F4FB8018FEB93E00E94F60888234A
:1029C000F9F22091BF033091C0038091C30390912D
:1029D000C403BE016F5F7F4F820F931F0E94D21B03
:1029E0001093C4030093C303CBCF6FE070E080E08B
:1029F00090E00E94D30279EDA72E72E0B72E04E09A
:102A000010E0F501C190D1905F01C114D10409F02B
:102A10003AC0702E60E0802F0E9420020E9497082A
:102A2000F801ED58FF4F8491F801E155FF4F849074
:102A3000F801E556FF4F9490992099F081110E947A
:102A40009D01E92DF0E0EE0FFF1FE957FF4FA59123
:102A5000B491EC918E2291E080E009F490E0C92ECF
:102A6000D82EB601DD0C880B990B0E94E2160E944D
:102A70007308872D0E946E0881E00E946E080E94F4
:102A8000DE080E94E6080F5F1F4F0E30110509F0A7
:102A9000B8CF53E1A52E51E0B52E10E0F50181919C
:102AA00091915F01892B09F060C044E1C42ED12CC3
:102AB00055245394012F006400937C0080917A0088
:102AC000806480937A0080917A0086FDFCCF8091AB
:102AD000780060917900762F682F072E000C880B04
:102AE000990B0E94E2163B014C01552019F06DA78D
:102AF0007EA61C012DEC3CEC4CEC5DE36DA57EA5A7
:102B0000C1010E9441171B012C0126E636E646E66C
:102B10005FE3B301C4010E9441179B01AC01C201F4
:102B2000B1010E9492186DA77EA71C01F1E0CF1A97
:102B3000D108512C09F0C0CF0E9497086DA57EA541
:102B4000C1010E947019072E000C880B990B0E947E
:102B5000E2160E947308812F0E946E0882E00E9494
:102B60006E080E94DE080E94E6081F5F163009F01A
:102B700095CF8091D002882309F46FC01091030192
:102B800060E0812F0E94C60183E090E00197F1F799
:102B900061E0812F0E94C60183E290E00197F1F786
:102BA00060E0812F0E94C601809101019091020195
:102BB0009927FC01E155FF4F6491FC01E556FF4F59
:102BC000E491F0E0EE0FFF1FE957FF4F85919491DC
:102BD00000E315E720E030E0462F0E94DA0C611593
:102BE00071058105910529F06F5F7F4F8F4F9F4FD2
:102BF0009F700E94E01620E030E048EE51E40E9411
:102C0000FE1820E030E040E05FE30E9441174B01F6
:102C10005C0120E030E0A9010E94DB16811175C043
:102C20008090C3029090C402A090C502B090C602EA
:102C30000E949708C501B4010E94730880910301A6
:102C40000E946E08809101010E946E0887E00E9438
:102C50006E080E94DE080E94E6088091CF02882359
:102C600009F47FC02FB7F8948091C7029091C802F1
:102C7000A091C902B091CA022FBF4091CB025091DE
:102C8000CC026091CD027091CE02841B950BA60BF5
:102C9000B70B8C329140A105B10508F062C00E94CB
:102CA00097081A8219821C821B821E821D826091E3
:102CB000BF037091C0036115710541F04091C303DA
:102CC0005091C403CE0101960E941E09DD800D2D96
:102CD0001E8184E00E946E088D2D0E946E08E01611
:102CE000F106F4F48D819E81E816F906B8F4898125
:102CF0009A81009799F08E0D9F1DFC0180810E94A2
:102D00006E08FFEFEF1AFF0AEACF8092C30290929B
:102D1000C402A092C502B092C6028ACF80E0EFCF73
:102D2000CE0101960E94EE0882E00E946E0889E0C2
:102D30000E946E080E94DE080E94E6086AE070E0C9
:102D400080E090E00E94D30280E090E0892B09F4BB
:102D5000B5C80E94FA00882309F4B0C80E94000098
:102D6000ADC850E040E063E671E08FEB93E00E9475
:102D70001E092FB7F8948091C7029091C802A091C4
:102D8000C902B091CA022FBF8093CB029093CC02AC
:102D9000A093CD02B093CE02D1CF8FEB93E00E94EF
:102DA000EE0887E491E09093C6038093C50385EC19
:102DB00093E00C94B3030E941D1708F481E008957A
:102DC000E89409C097FB3EF49095809570956195C5
:102DD0007F4F8F4F9F4F9923A9F0F92F96E9BB277B
:102DE0009395F695879577956795B795F111F8CFF7
:102DF000FAF4BB0F11F460FF1BC06F5F7F4F8F4F62
:102E00009F4F16C0882311F096E911C0772321F057
:102E10009EE8872F762F05C0662371F096E8862FEF
:102E200070E060E02AF09A95660F771F881FDAF746
:102E3000880F9695879597F90895990F0008550F73
:102E4000AA0BE0E8FEEF16161706E807F907C0F030
:102E500012161306E407F50798F0621B730B840B38
:102E6000950B39F40A2661F0232B242B252B21F412
:102E700008950A2609F4A140A6958FEF811D811DB2
:102E800008950E9454170C94C5170E94B71738F084
:102E90000E94BE1720F0952311F00C94AE170C94ED
:102EA000B41711240C94F9170E94D61770F3959F4C
:102EB000C1F3950F50E0551F629FF001729FBB2731
:102EC000F00DB11D639FAA27F00DB11DAA1F649FCD
:102ED0006627B00DA11D661F829F2227B00DA11D80
:102EE000621F739FB00DA11D621F839FA00D611D06
:102EF000221F749F3327A00D611D231F849F600D27
:102F0000211D822F762F6A2F11249F5750409AF04F
:102F1000F1F088234AF0EE0FFF1FBB1F661F771FDB
:102F2000881F91505040A9F79E3F510580F00C94A6
:102F3000AE170C94F9175F3FE4F3983ED4F38695EF
:102F400077956795B795F795E7959F5FC1F7FE2B46
:102F5000880F911D9695879597F9089597F99F6722
:102F600080E870E060E008959FEF80EC0895002411
:102F70000A941616170618060906089500240A94DE
:102F800012161306140605060895092E0394000C64
:102F900011F4882352F0BB0F40F4BF2B11F460FFF3
:102FA00004C06F5F7F4F8F4F9F4F089557FD90581C
:102FB000440F551F59F05F3F71F04795880F97FBFD
:102FC000991F61F09F3F79F08795089512161306B7
:102FD0001406551FF2CF4695F1DF08C016161706E6
:102FE0001806991FF1CF869571056105089408951B
:102FF000E894BB2766277727CB0197F90895052E1C
:1030000097FB1EF400940E94161857FD07D00E94EB
:10301000601807FC03D04EF40C9416185095409598
:10302000309521953F4F4F4F5F4F08959095809574
:10303000709561957F4F8F4F9F4F08950E94821822
:10304000A59F900DB49F900DA49F800D911D1124FC
:1030500008952F923F924F925F926F927F928F923C
:103060009F92AF92BF92CF92DF92EF92FF920F9317
:103070001F93CF93DF93CDB7DEB7CA1BDB0B0FB621
:10308000F894DEBF0FBECDBF09942A8839884888DE
:103090005F846E847D848C849B84AA84B984C88474
:1030A000DF80EE80FD800C811B81AA81B981CE0F6B
:1030B000D11D0FB6F894DEBF0FBECDBFED01089550
:1030C000A1E21A2EAA1BBB1BFD010DC0AA1FBB1F2C
:1030D000EE1FFF1FA217B307E407F50720F0A21B9E
:1030E000B30BE40BF50B661F771F881F991F1A940B
:1030F00069F760957095809590959B01AC01BD0135
:10310000CF010895A29FB001B39FC001A39F700D8E
:10311000811D1124911DB29F700D811D1124911DDF
:1031200008955058BB27AA270E94A9180C94C517C8
:103130000E94B71738F00E94BE1720F039F49F3F65
:1031400019F426F40C94B4170EF4E095E7FB0C94F4
:10315000AE17E92F0E94D61758F3BA176207730704
:103160008407950720F079F4A6F50C94F8170EF46F
:10317000E0950B2EBA2FA02D0B01B90190010C0187
:10318000CA01A0011124FF27591B99F0593F50F49F
:10319000503E68F11A16F040A22F232F342F4427F7
:1031A000585FF3CF469537952795A795F0405395EF
:1031B000C9F77EF41F16BA0B620B730B840BBAF0BF
:1031C0009150A1F0FF0FBB1F661F771F881FC2F72A
:1031D0000EC0BA0F621F731F841F48F4879577953E
:1031E0006795B795F7959E3F08F0B0CF9395880FF8
:1031F00008F09927EE0F9795879508950E94121968
:103200000C94C5170E94BE1758F00E94B71740F0E3
:1032100029F45F3F29F00C94AE1751110C94F91763
:103220000C94B4170E94D61768F39923B1F3552371
:1032300091F3951B550BBB27AA27621773078407C9
:1032400038F09F5F5F4F220F331F441FAA1FA9F35F
:1032500035D00E2E3AF0E0E832D091505040E6954D
:10326000001CCAF72BD0FE2F29D0660F771F881FAE
:10327000BB1F261737074807AB07B0E809F0BB0BA1
:10328000802DBF01FF2793585F4F3AF09E3F5105B5
:1032900078F00C94AE170C94F9175F3FE4F3983E66
:1032A000D4F3869577956795B795F7959F5FC9F79E
:1032B000880F911D9695879597F90895E1E0660F1F
:1032C000771F881FBB1F621773078407BA0720F098
:1032D000621B730B840BBA0BEE1F88F7E095089501
:1032E0000E9477196894B1110C94F91708950E94FF
:1032F000DE1788F09F5798F0B92F9927B751B0F093
:10330000E1F0660F771F881F991F1AF0BA95C9F769
:1033100014C0B13091F00E94F817B1E008950C94F8
:10332000F817672F782F8827B85F39F0B93FCCF3AB
:10333000869577956795B395D9F73EF490958095E6
:10334000709561957F4F8F4F9F4F0895991B79E03E
:1033500004C0991F961708F0961B881F7A95C9F725
:103360008095089597FB072E16F4009407D077FDFB
:1033700009D00E94D31907FC05D03EF490958195A1
:103380009F4F0895709561957F4F0895EE0FFF1F31
:103390000590F491E02D09940E948218B7FF0895DA
:1033A000821B930B0895AA1BBB1B51E107C0AA1FE8
:1033B000BB1FA617B70710F0A61BB70B881F991FD6
:1033C0005A95A9F780959095BC01CD0108950F936A
:1033D0001F93CF93DF938230910510F482E090E049
:1033E000E0910D04F0910E0430E020E0B0E0A0E0A8
:1033F000309799F42115310509F44AC0281B390B7F
:1034000024303105D8F58A819B816115710589F1D8
:10341000FB0193838283FE0111C0408151810281AF
:10342000138148175907E0F04817590799F4109786
:1034300061F012960C93129713961C933296CF015B
:10344000DF91CF911F910F91089500930D04109378
:103450000E04F4CF2115310551F04217530738F00F
:10346000A901DB019A01BD01DF01F801C1CFEF0124
:10347000F9CF90930E0480930D04CDCFFE01E20F9F
:10348000F31F819391932250310939832883D7CF39
:1034900020910B0430910C04232B41F4209107015F
:1034A0003091080130930C0420930B042091050106
:1034B000309106012115310541F42DB73EB74091F9
:1034C000090150910A01241B350BE0910B04F09186
:1034D0000C04E217F307A0F42E1B3F0B2817390743
:1034E00078F0AC014E5F5F4F2417350748F04E0F60
:1034F0005F1F50930C0440930B04819391939FCFD3
:10350000F0E0E0E09CCFCF93DF930097E9F0FC017F
:10351000329713821282A0910D04B0910E04ED0136
:1035200030E020E01097A1F420813181820F931FB9
:1035300020910B0430910C042817390709F061C061
:10354000F0930C04E0930B04DF91CF910895EA010E
:10355000CE17DF07E8F54A815B819E0141155105D1
:10356000B1F7E901FB83EA8349915991C40FD51F53
:10357000EC17FD0761F4808191810296840F951FFD
:10358000E90199838883828193819B838A83F0E018
:10359000E0E012968D919C9113970097B9F52D91CB
:1035A0003C911197CD010296820F931F20910B043D
:1035B00030910C042817390739F6309751F51092DD
:1035C0000E0410920D04B0930C04A0930B04BCCF16
:1035D000D383C28340815181840F951FC817D907B7
:1035E00061F44E5F5F4F88819981480F591F518365
:1035F00040838A819B81938382832115310509F061
:10360000B0CFF0930E04E0930D049ECFFD01DC01DA
:10361000C0CF13821282D7CFB0E0A0E0E2E1FBE19D
:103620000C942B188C01009751F4CB010E94E719E0
:103630008C01C801CDB7DEB7E0E10C944718FC015E
:10364000E60FF71F9C0122503109E217F30708F437
:103650009DC0D901CD91DC911197C617D70798F07D
:10366000C530D10530F3CE0104978617970708F3CC
:10367000C61BD70B2297C193D1936D937C93CF0137
:103680000E94831AD6CF5B01AC1ABD0A4C018C0E86
:103690009D1EA0910D04B0910E04512C412CF12CD3
:1036A000E12C109731F580910B0490910C04881552
:1036B000990509F05CC04616570608F058C080917D
:1036C000050190910601009741F48DB79EB7409196
:1036D000090150910A01841B950BE817F90708F0BE
:1036E00055C0F0930C04E0930B04F90171836083DF
:1036F000A0CF8D919C91119712966C901297139672
:103700007C901397A815B90559F56C0142E0C40ED9
:10371000D11CCA14DB0420F1AC014A195B09DA019F
:103720001296159780F06282738251834083D9018B
:103730006D937C93E114F10471F0D7011396FC931F
:10374000EE93129776CF22968C0F9D1FF9019183ED
:103750008083F301EFCFF0930E04E0930D0469CF63
:103760004816590608F42C017D01D3019ACFCB01EC
:103770000E94E7197C01009749F0AE01B8010E9450
:10378000C91BC8010E94831A870153CF10E000E0D3
:1037900050CFFB01DC0102C001900D92415050401E
:1037A000D8F70895FB01DC0101900D920020E1F7AC
:1037B000089510E0C3E6D0E004C0FE010E94C619DF
:0C37C0002196C436D107C9F7F894FFCF5A
:1037CC00FF0C000D0000000F0480000000400014EE
:1037DC000054000000000000000000000000000089
:1037EC0000000030019000BD007D01EE00CC00E037
:1037FC0000000000001A05ED0431061D03E604D399
:10380C0004C404000000001E03900031061D037A5E
:10381C00039203050300000000D808900031063025
:04382C00060D0A007B
:00000001FF
